{
  "_format": "hh-sol-artifact-1",
  "contractName": "Factory",
  "sourceName": "contracts/Factory.sol",
  "abi": [
    {
      "inputs": [
        {
          "internalType": "address",
          "name": "feeTaker_",
          "type": "address"
        }
      ],
      "stateMutability": "nonpayable",
      "type": "constructor"
    },
    {
      "anonymous": false,
      "inputs": [
        {
          "indexed": true,
          "internalType": "bytes32",
          "name": "role",
          "type": "bytes32"
        },
        {
          "indexed": true,
          "internalType": "bytes32",
          "name": "previousAdminRole",
          "type": "bytes32"
        },
        {
          "indexed": true,
          "internalType": "bytes32",
          "name": "newAdminRole",
          "type": "bytes32"
        }
      ],
      "name": "RoleAdminChanged",
      "type": "event"
    },
    {
      "anonymous": false,
      "inputs": [
        {
          "indexed": true,
          "internalType": "bytes32",
          "name": "role",
          "type": "bytes32"
        },
        {
          "indexed": true,
          "internalType": "address",
          "name": "account",
          "type": "address"
        },
        {
          "indexed": true,
          "internalType": "address",
          "name": "sender",
          "type": "address"
        }
      ],
      "name": "RoleGranted",
      "type": "event"
    },
    {
      "anonymous": false,
      "inputs": [
        {
          "indexed": true,
          "internalType": "bytes32",
          "name": "role",
          "type": "bytes32"
        },
        {
          "indexed": true,
          "internalType": "address",
          "name": "account",
          "type": "address"
        },
        {
          "indexed": true,
          "internalType": "address",
          "name": "sender",
          "type": "address"
        }
      ],
      "name": "RoleRevoked",
      "type": "event"
    },
    {
      "anonymous": false,
      "inputs": [
        {
          "indexed": false,
          "internalType": "bytes32",
          "name": "_id",
          "type": "bytes32"
        }
      ],
      "name": "TimelockCancelled",
      "type": "event"
    },
    {
      "anonymous": false,
      "inputs": [
        {
          "indexed": false,
          "internalType": "bytes32",
          "name": "_id",
          "type": "bytes32"
        },
        {
          "indexed": false,
          "internalType": "uint256",
          "name": "_amount",
          "type": "uint256"
        },
        {
          "indexed": false,
          "internalType": "address",
          "name": "_creator",
          "type": "address"
        },
        {
          "indexed": false,
          "internalType": "address",
          "name": "_recipient",
          "type": "address"
        },
        {
          "indexed": false,
          "internalType": "address",
          "name": "_token",
          "type": "address"
        },
        {
          "indexed": false,
          "internalType": "uint256",
          "name": "_lockedUntil",
          "type": "uint256"
        },
        {
          "indexed": false,
          "internalType": "uint256",
          "name": "_fee",
          "type": "uint256"
        }
      ],
      "name": "TimelockObjectCreated",
      "type": "event"
    },
    {
      "anonymous": false,
      "inputs": [
        {
          "indexed": false,
          "internalType": "bytes32",
          "name": "_id",
          "type": "bytes32"
        }
      ],
      "name": "TimelockProcessed",
      "type": "event"
    },
    {
      "inputs": [],
      "name": "DEFAULT_ADMIN_ROLE",
      "outputs": [
        {
          "internalType": "bytes32",
          "name": "",
          "type": "bytes32"
        }
      ],
      "stateMutability": "view",
      "type": "function"
    },
    {
      "inputs": [
        {
          "internalType": "uint256",
          "name": "",
          "type": "uint256"
        }
      ],
      "name": "_allTimelocks",
      "outputs": [
        {
          "internalType": "bytes32",
          "name": "",
          "type": "bytes32"
        }
      ],
      "stateMutability": "view",
      "type": "function"
    },
    {
      "inputs": [
        {
          "internalType": "uint256",
          "name": "lockTime_",
          "type": "uint256"
        },
        {
          "internalType": "uint256",
          "name": "amount_",
          "type": "uint256"
        }
      ],
      "name": "_calculateFee",
      "outputs": [
        {
          "internalType": "uint256",
          "name": "fee",
          "type": "uint256"
        }
      ],
      "stateMutability": "view",
      "type": "function"
    },
    {
      "inputs": [
        {
          "internalType": "bytes32",
          "name": "_timelockID",
          "type": "bytes32"
        }
      ],
      "name": "_cancelTx",
      "outputs": [
        {
          "internalType": "bool",
          "name": "",
          "type": "bool"
        }
      ],
      "stateMutability": "nonpayable",
      "type": "function"
    },
    {
      "inputs": [
        {
          "internalType": "bytes32",
          "name": "_timelockID",
          "type": "bytes32"
        }
      ],
      "name": "_getTimelock",
      "outputs": [
        {
          "components": [
            {
              "internalType": "bytes32",
              "name": "_id",
              "type": "bytes32"
            },
            {
              "internalType": "uint256",
              "name": "_amount",
              "type": "uint256"
            },
            {
              "internalType": "address",
              "name": "_creator",
              "type": "address"
            },
            {
              "internalType": "address",
              "name": "_recipient",
              "type": "address"
            },
            {
              "internalType": "address",
              "name": "_token",
              "type": "address"
            },
            {
              "internalType": "uint256",
              "name": "_lockedUntil",
              "type": "uint256"
            },
            {
              "internalType": "uint256",
              "name": "_fee",
              "type": "uint256"
            }
          ],
          "internalType": "struct IFactory.TimelockObject",
          "name": "",
          "type": "tuple"
        }
      ],
      "stateMutability": "view",
      "type": "function"
    },
    {
      "inputs": [
        {
          "internalType": "uint256",
          "name": "lockTime_",
          "type": "uint256"
        },
        {
          "internalType": "address",
          "name": "recipient_",
          "type": "address"
        }
      ],
      "name": "_lockEtherForLater",
      "outputs": [],
      "stateMutability": "payable",
      "type": "function"
    },
    {
      "inputs": [
        {
          "internalType": "address",
          "name": "token_",
          "type": "address"
        },
        {
          "internalType": "uint256",
          "name": "lockTime_",
          "type": "uint256"
        },
        {
          "internalType": "address",
          "name": "recipient_",
          "type": "address"
        },
        {
          "internalType": "uint256",
          "name": "amount_",
          "type": "uint256"
        }
      ],
      "name": "_lockTokenForLater",
      "outputs": [],
      "stateMutability": "payable",
      "type": "function"
    },
    {
      "inputs": [
        {
          "internalType": "bytes32",
          "name": "_timelockID",
          "type": "bytes32"
        }
      ],
      "name": "_proceedWithTx",
      "outputs": [
        {
          "internalType": "bool",
          "name": "",
          "type": "bool"
        }
      ],
      "stateMutability": "nonpayable",
      "type": "function"
    },
    {
      "inputs": [
        {
          "internalType": "address",
          "name": "feeTaker_",
          "type": "address"
        }
      ],
      "name": "_setFeeTaker",
      "outputs": [],
      "stateMutability": "nonpayable",
      "type": "function"
    },
    {
      "inputs": [
        {
          "internalType": "address",
          "name": "token",
          "type": "address"
        }
      ],
      "name": "_takeToken",
      "outputs": [],
      "stateMutability": "nonpayable",
      "type": "function"
    },
    {
      "inputs": [],
      "name": "_takeWithdrawableFees",
      "outputs": [],
      "stateMutability": "nonpayable",
      "type": "function"
    },
    {
      "inputs": [],
      "name": "_withdrawableFee",
      "outputs": [
        {
          "internalType": "uint256",
          "name": "",
          "type": "uint256"
        }
      ],
      "stateMutability": "view",
      "type": "function"
    },
    {
      "inputs": [],
      "name": "deployTime",
      "outputs": [
        {
          "internalType": "uint256",
          "name": "",
          "type": "uint256"
        }
      ],
      "stateMutability": "view",
      "type": "function"
    },
    {
      "inputs": [
        {
          "internalType": "bytes32",
          "name": "role",
          "type": "bytes32"
        }
      ],
      "name": "getRoleAdmin",
      "outputs": [
        {
          "internalType": "bytes32",
          "name": "",
          "type": "bytes32"
        }
      ],
      "stateMutability": "view",
      "type": "function"
    },
    {
      "inputs": [
        {
          "internalType": "bytes32",
          "name": "role",
          "type": "bytes32"
        },
        {
          "internalType": "address",
          "name": "account",
          "type": "address"
        }
      ],
      "name": "grantRole",
      "outputs": [],
      "stateMutability": "nonpayable",
      "type": "function"
    },
    {
      "inputs": [
        {
          "internalType": "bytes32",
          "name": "role",
          "type": "bytes32"
        },
        {
          "internalType": "address",
          "name": "account",
          "type": "address"
        }
      ],
      "name": "hasRole",
      "outputs": [
        {
          "internalType": "bool",
          "name": "",
          "type": "bool"
        }
      ],
      "stateMutability": "view",
      "type": "function"
    },
    {
      "inputs": [
        {
          "internalType": "bytes32",
          "name": "role",
          "type": "bytes32"
        },
        {
          "internalType": "address",
          "name": "account",
          "type": "address"
        }
      ],
      "name": "renounceRole",
      "outputs": [],
      "stateMutability": "nonpayable",
      "type": "function"
    },
    {
      "inputs": [
        {
          "internalType": "bytes32",
          "name": "role",
          "type": "bytes32"
        },
        {
          "internalType": "address",
          "name": "account",
          "type": "address"
        }
      ],
      "name": "revokeRole",
      "outputs": [],
      "stateMutability": "nonpayable",
      "type": "function"
    },
    {
      "inputs": [
        {
          "internalType": "bytes4",
          "name": "interfaceId",
          "type": "bytes4"
        }
      ],
      "name": "supportsInterface",
      "outputs": [
        {
          "internalType": "bool",
          "name": "",
          "type": "bool"
        }
      ],
      "stateMutability": "view",
      "type": "function"
    },
    {
      "stateMutability": "payable",
      "type": "receive"
    }
  ],
  "bytecode": "0x60a06040523480156200001157600080fd5b5060405162003a1738038062003a17833981810160405281019062000037919062000297565b6001600081905550620000636000801b62000057620000b360201b60201c565b620000bb60201b60201c565b80600460006101000a81548173ffffffffffffffffffffffffffffffffffffffff021916908373ffffffffffffffffffffffffffffffffffffffff160217905550426080818152505050620002c9565b600033905090565b620000cd8282620000d160201b60201c565b5050565b620000e38282620001c260201b60201c565b620001be57600180600084815260200190815260200160002060000160008373ffffffffffffffffffffffffffffffffffffffff1673ffffffffffffffffffffffffffffffffffffffff16815260200190815260200160002060006101000a81548160ff02191690831515021790555062000163620000b360201b60201c565b73ffffffffffffffffffffffffffffffffffffffff168173ffffffffffffffffffffffffffffffffffffffff16837f2f8788117e7eff1d82e926ec794901d17c78024a50270940304540a733656f0d60405160405180910390a45b5050565b60006001600084815260200190815260200160002060000160008373ffffffffffffffffffffffffffffffffffffffff1673ffffffffffffffffffffffffffffffffffffffff16815260200190815260200160002060009054906101000a900460ff16905092915050565b600080fd5b600073ffffffffffffffffffffffffffffffffffffffff82169050919050565b60006200025f8262000232565b9050919050565b620002718162000252565b81146200027d57600080fd5b50565b600081519050620002918162000266565b92915050565b600060208284031215620002b057620002af6200022d565b5b6000620002c08482850162000280565b91505092915050565b60805161372b620002ec6000396000818161114101526117c3015261372b6000f3fe6080604052600436106101185760003560e01c80637a40624b116100a0578063c5ead62211610064578063c5ead622146103db578063cacd4c1a14610404578063d3ad1cbf14610441578063d547741f1461047e578063ec94d635146104a757610139565b80637a40624b146102ce57806391d14854146102f9578063a217fddf14610336578063b2bb58b914610361578063b3e94e981461039e57610139565b806336568abe116100e757806336568abe1461020a5780633baad4bf146102335780635ee73fe91461024f57806365c07c681461028c5780636f8e07b8146102b757610139565b806301ffc9a71461013e57806317d68ed51461017b578063248a9ca3146101a45780632f2ff15d146101e157610139565b3661013957610132346005546104c390919063ffffffff16565b6005819055005b600080fd5b34801561014a57600080fd5b50610165600480360381019061016091906125c7565b6104d9565b604051610172919061260f565b60405180910390f35b34801561018757600080fd5b506101a2600480360381019061019d9190612688565b610553565b005b3480156101b057600080fd5b506101cb60048036038101906101c691906126eb565b6107df565b6040516101d89190612727565b60405180910390f35b3480156101ed57600080fd5b5061020860048036038101906102039190612742565b6107ff565b005b34801561021657600080fd5b50610231600480360381019061022c9190612742565b610828565b005b61024d600480360381019061024891906127b8565b6108ab565b005b34801561025b57600080fd5b50610276600480360381019061027191906126eb565b610cb6565b604051610283919061260f565b60405180910390f35b34801561029857600080fd5b506102a1611077565b6040516102ae919061282e565b60405180910390f35b3480156102c357600080fd5b506102cc61107d565b005b3480156102da57600080fd5b506102e361113f565b6040516102f0919061282e565b60405180910390f35b34801561030557600080fd5b50610320600480360381019061031b9190612742565b611163565b60405161032d919061260f565b60405180910390f35b34801561034257600080fd5b5061034b6111ce565b6040516103589190612727565b60405180910390f35b34801561036d57600080fd5b5061038860048036038101906103839190612849565b6111d5565b6040516103959190612727565b60405180910390f35b3480156103aa57600080fd5b506103c560048036038101906103c091906126eb565b6111f9565b6040516103d29190612931565b60405180910390f35b3480156103e757600080fd5b5061040260048036038101906103fd9190612688565b611350565b005b34801561041057600080fd5b5061042b600480360381019061042691906126eb565b6113e7565b604051610438919061260f565b60405180910390f35b34801561044d57600080fd5b506104686004803603810190610463919061294c565b6117b5565b604051610475919061282e565b60405180910390f35b34801561048a57600080fd5b506104a560048036038101906104a09190612742565b611849565b005b6104c160048036038101906104bc919061298c565b611872565b005b600081836104d191906129fb565b905092915050565b60007f7965db0b000000000000000000000000000000000000000000000000000000007bffffffffffffffffffffffffffffffffffffffffffffffffffffffff1916827bffffffffffffffffffffffffffffffffffffffffffffffffffffffff1916148061054c575061054b82611b1d565b5b9050919050565b6105676000801b610562611b87565b611163565b6105a6576040517f08c379a000000000000000000000000000000000000000000000000000000000815260040161059d90612aae565b60405180910390fd5b600360008273ffffffffffffffffffffffffffffffffffffffff1673ffffffffffffffffffffffffffffffffffffffff168152602001908152602001600020548173ffffffffffffffffffffffffffffffffffffffff166370a08231306040518263ffffffff1660e01b815260040161061f9190612add565b602060405180830381865afa15801561063c573d6000803e3d6000fd5b505050506040513d601f19601f820116820180604052508101906106609190612b0d565b116106a0576040517f08c379a000000000000000000000000000000000000000000000000000000000815260040161069790612bac565b60405180910390fd5b600061076d600360008473ffffffffffffffffffffffffffffffffffffffff1673ffffffffffffffffffffffffffffffffffffffff168152602001908152602001600020548373ffffffffffffffffffffffffffffffffffffffff166370a08231306040518263ffffffff1660e01b815260040161071e9190612add565b602060405180830381865afa15801561073b573d6000803e3d6000fd5b505050506040513d601f19601f8201168201806040525081019061075f9190612b0d565b611b8f90919063ffffffff16565b905061079c82600460009054906101000a900473ffffffffffffffffffffffffffffffffffffffff1683611ba5565b6107db576040517f08c379a00000000000000000000000000000000000000000000000000000000081526004016107d290612c18565b60405180910390fd5b5050565b600060016000838152602001908152602001600020600101549050919050565b610808826107df565b61081981610814611b87565b611d0b565b6108238383611da8565b505050565b610830611b87565b73ffffffffffffffffffffffffffffffffffffffff168173ffffffffffffffffffffffffffffffffffffffff161461089d576040517f08c379a000000000000000000000000000000000000000000000000000000000815260040161089490612caa565b60405180910390fd5b6108a78282611e88565b5050565b61012c6108c14285611b8f90919063ffffffff16565b1015610902576040517f08c379a00000000000000000000000000000000000000000000000000000000081526004016108f990612d62565b60405180910390fd5b808473ffffffffffffffffffffffffffffffffffffffff1663dd62ed3e610927611b87565b306040518363ffffffff1660e01b8152600401610945929190612d82565b602060405180830381865afa158015610962573d6000803e3d6000fd5b505050506040513d601f19601f820116820180604052508101906109869190612b0d565b10156109c7576040517f08c379a00000000000000000000000000000000000000000000000000000000081526004016109be90612df7565b60405180910390fd5b60006109d384836117b5565b905080341015610a18576040517f08c379a0000000000000000000000000000000000000000000000000000000008152600401610a0f90612e63565b60405180910390fd5b6000848385610a25611b87565b8542604051602001610a3c96959493929190612eec565b604051602081830303815290604052805190602001209050610a6786610a60611b87565b3086611f6a565b5082600360008873ffffffffffffffffffffffffffffffffffffffff1673ffffffffffffffffffffffffffffffffffffffff168152602001908152602001600020819055506040518060e00160405280828152602001848152602001610acb611b87565b73ffffffffffffffffffffffffffffffffffffffff1681526020018573ffffffffffffffffffffffffffffffffffffffff1681526020018773ffffffffffffffffffffffffffffffffffffffff1681526020018681526020013481525060026000838152602001908152602001600020600082015181600001556020820151816001015560408201518160020160006101000a81548173ffffffffffffffffffffffffffffffffffffffff021916908373ffffffffffffffffffffffffffffffffffffffff16021790555060608201518160030160006101000a81548173ffffffffffffffffffffffffffffffffffffffff021916908373ffffffffffffffffffffffffffffffffffffffff16021790555060808201518160040160006101000a81548173ffffffffffffffffffffffffffffffffffffffff021916908373ffffffffffffffffffffffffffffffffffffffff16021790555060a0820151816005015560c0820151816006015590505060068190806001815401808255809150506001900390600052602060002001600090919091909150557fa24e95845a1f91c9ba3be5cc98b48d12d61cd22bdc8ae2d3dfc3aedd24b506328184610c8f611b87565b878a8a88604051610ca69796959493929190612f5c565b60405180910390a1505050505050565b6000806002600084815260200190815260200160002090508060050154421015610d15576040517f08c379a0000000000000000000000000000000000000000000000000000000008152600401610d0c9061303d565b60405180910390fd5b610d1d611b87565b73ffffffffffffffffffffffffffffffffffffffff168160020160009054906101000a900473ffffffffffffffffffffffffffffffffffffffff1673ffffffffffffffffffffffffffffffffffffffff16148015610d8257506000801b816000015414155b610dc1576040517f08c379a0000000000000000000000000000000000000000000000000000000008152600401610db8906130a9565b60405180910390fd5b600073ffffffffffffffffffffffffffffffffffffffff168160040160009054906101000a900473ffffffffffffffffffffffffffffffffffffffff1673ffffffffffffffffffffffffffffffffffffffff1603610e5157610e4b8160020160009054906101000a900473ffffffffffffffffffffffffffffffffffffffff1682600101546120b6565b50610f8b565b610ea88160040160009054906101000a900473ffffffffffffffffffffffffffffffffffffffff168260020160009054906101000a900473ffffffffffffffffffffffffffffffffffffffff168360010154611ba5565b50610f238160010154600360008460040160009054906101000a900473ffffffffffffffffffffffffffffffffffffffff1673ffffffffffffffffffffffffffffffffffffffff1673ffffffffffffffffffffffffffffffffffffffff16815260200190815260200160002054611b8f90919063ffffffff16565b600360008360040160009054906101000a900473ffffffffffffffffffffffffffffffffffffffff1673ffffffffffffffffffffffffffffffffffffffff1673ffffffffffffffffffffffffffffffffffffffff168152602001908152602001600020819055505b6002600084815260200190815260200160002060008082016000905560018201600090556002820160006101000a81549073ffffffffffffffffffffffffffffffffffffffff02191690556003820160006101000a81549073ffffffffffffffffffffffffffffffffffffffff02191690556004820160006101000a81549073ffffffffffffffffffffffffffffffffffffffff02191690556005820160009055600682016000905550507fa32a56a4fb497457a2ff2c7acd600aac5dd868b3c2fd537c030e2bbfaecd47e1836040516110659190612727565b60405180910390a16001915050919050565b60055481565b6110916000801b61108c611b87565b611163565b6110d0576040517f08c379a00000000000000000000000000000000000000000000000000000000081526004016110c790612aae565b60405180910390fd5b6110fe600460009054906101000a900473ffffffffffffffffffffffffffffffffffffffff166005546120b6565b61113d576040517f08c379a000000000000000000000000000000000000000000000000000000000815260040161113490613115565b60405180910390fd5b565b7f000000000000000000000000000000000000000000000000000000000000000081565b60006001600084815260200190815260200160002060000160008373ffffffffffffffffffffffffffffffffffffffff1673ffffffffffffffffffffffffffffffffffffffff16815260200190815260200160002060009054906101000a900460ff16905092915050565b6000801b81565b600681815481106111e557600080fd5b906000526020600020016000915090505481565b6112016124e8565b600260008381526020019081526020016000206040518060e001604052908160008201548152602001600182015481526020016002820160009054906101000a900473ffffffffffffffffffffffffffffffffffffffff1673ffffffffffffffffffffffffffffffffffffffff1673ffffffffffffffffffffffffffffffffffffffff1681526020016003820160009054906101000a900473ffffffffffffffffffffffffffffffffffffffff1673ffffffffffffffffffffffffffffffffffffffff1673ffffffffffffffffffffffffffffffffffffffff1681526020016004820160009054906101000a900473ffffffffffffffffffffffffffffffffffffffff1673ffffffffffffffffffffffffffffffffffffffff1673ffffffffffffffffffffffffffffffffffffffff168152602001600582015481526020016006820154815250509050919050565b6113646000801b61135f611b87565b611163565b6113a3576040517f08c379a000000000000000000000000000000000000000000000000000000000815260040161139a90612aae565b60405180910390fd5b80600460006101000a81548173ffffffffffffffffffffffffffffffffffffffff021916908373ffffffffffffffffffffffffffffffffffffffff16021790555050565b600080600260008481526020019081526020016000209050611407611b87565b73ffffffffffffffffffffffffffffffffffffffff168160020160009054906101000a900473ffffffffffffffffffffffffffffffffffffffff1673ffffffffffffffffffffffffffffffffffffffff1614801561146c57506000801b816000015414155b6114ab576040517f08c379a00000000000000000000000000000000000000000000000000000000081526004016114a2906130a9565b60405180910390fd5b600073ffffffffffffffffffffffffffffffffffffffff168160040160009054906101000a900473ffffffffffffffffffffffffffffffffffffffff1673ffffffffffffffffffffffffffffffffffffffff16036115705761154b8160030160009054906101000a900473ffffffffffffffffffffffffffffffffffffffff1661154683600601548460010154611b8f90919063ffffffff16565b6120b6565b5061156581600601546005546104c390919063ffffffff16565b6005819055506116c9565b6115c78160040160009054906101000a900473ffffffffffffffffffffffffffffffffffffffff168260030160009054906101000a900473ffffffffffffffffffffffffffffffffffffffff168360010154611ba5565b506116428160010154600360008460040160009054906101000a900473ffffffffffffffffffffffffffffffffffffffff1673ffffffffffffffffffffffffffffffffffffffff1673ffffffffffffffffffffffffffffffffffffffff16815260200190815260200160002054611b8f90919063ffffffff16565b600360008360040160009054906101000a900473ffffffffffffffffffffffffffffffffffffffff1673ffffffffffffffffffffffffffffffffffffffff1673ffffffffffffffffffffffffffffffffffffffff168152602001908152602001600020819055506116c281600601546005546104c390919063ffffffff16565b6005819055505b6002600084815260200190815260200160002060008082016000905560018201600090556002820160006101000a81549073ffffffffffffffffffffffffffffffffffffffff02191690556003820160006101000a81549073ffffffffffffffffffffffffffffffffffffffff02191690556004820160006101000a81549073ffffffffffffffffffffffffffffffffffffffff02191690556005820160009055600682016000905550507fbc69a882ed965208c3e3d7ad3ab387a98f8f122da25ec24ac24049bd96c9b23a836040516117a39190612727565b60405180910390a16001915050919050565b6000806117fe426117f0600a7f000000000000000000000000000000000000000000000000000000000000000061220690919063ffffffff16565b61221c90919063ffffffff16565b905061184061183b8561182d600a61181f888761220690919063ffffffff16565b61221c90919063ffffffff16565b611b8f90919063ffffffff16565b612232565b91505092915050565b611852826107df565b6118638161185e611b87565b611d0b565b61186d8383611e88565b505050565b61012c6118884284611b8f90919063ffffffff16565b10156118c9576040517f08c379a00000000000000000000000000000000000000000000000000000000081526004016118c090612d62565b60405180910390fd5b60006118d583346117b5565b905060008334846118e4611b87565b85426040516020016118fb96959493929190612eec565b6040516020818303038152906040528051906020012090506040518060e00160405280828152602001348152602001611932611b87565b73ffffffffffffffffffffffffffffffffffffffff1681526020018473ffffffffffffffffffffffffffffffffffffffff168152602001600073ffffffffffffffffffffffffffffffffffffffff1681526020018581526020018381525060026000838152602001908152602001600020600082015181600001556020820151816001015560408201518160020160006101000a81548173ffffffffffffffffffffffffffffffffffffffff021916908373ffffffffffffffffffffffffffffffffffffffff16021790555060608201518160030160006101000a81548173ffffffffffffffffffffffffffffffffffffffff021916908373ffffffffffffffffffffffffffffffffffffffff16021790555060808201518160040160006101000a81548173ffffffffffffffffffffffffffffffffffffffff021916908373ffffffffffffffffffffffffffffffffffffffff16021790555060a0820151816005015560c0820151816006015590505060068190806001815401808255809150506001900390600052602060002001600090919091909150557fa24e95845a1f91c9ba3be5cc98b48d12d61cd22bdc8ae2d3dfc3aedd24b506328134611af7611b87565b8660008988604051611b0f9796959493929190612f5c565b60405180910390a150505050565b60007f01ffc9a7000000000000000000000000000000000000000000000000000000007bffffffffffffffffffffffffffffffffffffffffffffffffffffffff1916827bffffffffffffffffffffffffffffffffffffffffffffffffffffffff1916149050919050565b600033905090565b60008183611b9d9190613135565b905092915050565b6000808473ffffffffffffffffffffffffffffffffffffffff166040518060400160405280601981526020017f7472616e7366657228616464726573732c75696e743235362900000000000000815250805190602001208585604051602401611c0f929190613169565b604051602081830303815290604052907bffffffffffffffffffffffffffffffffffffffffffffffffffffffff19166020820180517bffffffffffffffffffffffffffffffffffffffffffffffffffffffff8381831617835250505050604051611c79919061320c565b6000604051808303816000865af19150503d8060008114611cb6576040519150601f19603f3d011682016040523d82523d6000602084013e611cbb565b606091505b5050905080611cff576040517f08c379a0000000000000000000000000000000000000000000000000000000008152600401611cf69061326f565b60405180910390fd5b60019150509392505050565b611d158282611163565b611da457611d3a8173ffffffffffffffffffffffffffffffffffffffff1660146122ac565b611d488360001c60206122ac565b604051602001611d5992919061336e565b6040516020818303038152906040526040517f08c379a0000000000000000000000000000000000000000000000000000000008152600401611d9b91906133f2565b60405180910390fd5b5050565b611db28282611163565b611e8457600180600084815260200190815260200160002060000160008373ffffffffffffffffffffffffffffffffffffffff1673ffffffffffffffffffffffffffffffffffffffff16815260200190815260200160002060006101000a81548160ff021916908315150217905550611e29611b87565b73ffffffffffffffffffffffffffffffffffffffff168173ffffffffffffffffffffffffffffffffffffffff16837f2f8788117e7eff1d82e926ec794901d17c78024a50270940304540a733656f0d60405160405180910390a45b5050565b611e928282611163565b15611f665760006001600084815260200190815260200160002060000160008373ffffffffffffffffffffffffffffffffffffffff1673ffffffffffffffffffffffffffffffffffffffff16815260200190815260200160002060006101000a81548160ff021916908315150217905550611f0b611b87565b73ffffffffffffffffffffffffffffffffffffffff168173ffffffffffffffffffffffffffffffffffffffff16837ff6391f5c32d9c69d2a47ea670b442974b53935d1edc7fd64eb21e047a839171b60405160405180910390a45b5050565b6000808573ffffffffffffffffffffffffffffffffffffffff166040518060600160405280602581526020016136d16025913980519060200120868686604051602401611fb993929190613414565b604051602081830303815290604052907bffffffffffffffffffffffffffffffffffffffffffffffffffffffff19166020820180517bffffffffffffffffffffffffffffffffffffffffffffffffffffffff8381831617835250505050604051612023919061320c565b6000604051808303816000865af19150503d8060008114612060576040519150601f19603f3d011682016040523d82523d6000602084013e612065565b606091505b50509050806120a9576040517f08c379a00000000000000000000000000000000000000000000000000000000081526004016120a09061326f565b60405180910390fd5b6001915050949350505050565b600080479050828110156120ff576040517f08c379a00000000000000000000000000000000000000000000000000000000081526004016120f690613497565b60405180910390fd5b60008473ffffffffffffffffffffffffffffffffffffffff1684600067ffffffffffffffff811115612134576121336134b7565b5b6040519080825280601f01601f1916602001820160405280156121665781602001600182028036833780820191505090505b50604051612174919061320c565b60006040518083038185875af1925050503d80600081146121b1576040519150601f19603f3d011682016040523d82523d6000602084013e6121b6565b606091505b50509050806121fa576040517f08c379a00000000000000000000000000000000000000000000000000000000081526004016121f190613532565b60405180910390fd5b60019250505092915050565b600081836122149190613552565b905092915050565b6000818361222a91906135db565b905092915050565b60006003821115612299578190506000600160028461225191906135db565b61225b91906129fb565b90505b8181101561229357809150600281828561227891906135db565b61228291906129fb565b61228c91906135db565b905061225e565b506122a7565b600082146122a657600190505b5b919050565b6060600060028360026122bf9190613552565b6122c991906129fb565b67ffffffffffffffff8111156122e2576122e16134b7565b5b6040519080825280601f01601f1916602001820160405280156123145781602001600182028036833780820191505090505b5090507f30000000000000000000000000000000000000000000000000000000000000008160008151811061234c5761234b61360c565b5b60200101907effffffffffffffffffffffffffffffffffffffffffffffffffffffffffffff1916908160001a9053507f7800000000000000000000000000000000000000000000000000000000000000816001815181106123b0576123af61360c565b5b60200101907effffffffffffffffffffffffffffffffffffffffffffffffffffffffffffff1916908160001a905350600060018460026123f09190613552565b6123fa91906129fb565b90505b600181111561249a577f3031323334353637383961626364656600000000000000000000000000000000600f86166010811061243c5761243b61360c565b5b1a60f81b8282815181106124535761245261360c565b5b60200101907effffffffffffffffffffffffffffffffffffffffffffffffffffffffffffff1916908160001a905350600485901c9450806124939061363b565b90506123fd565b50600084146124de576040517f08c379a00000000000000000000000000000000000000000000000000000000081526004016124d5906136b0565b60405180910390fd5b8091505092915050565b6040518060e001604052806000801916815260200160008152602001600073ffffffffffffffffffffffffffffffffffffffff168152602001600073ffffffffffffffffffffffffffffffffffffffff168152602001600073ffffffffffffffffffffffffffffffffffffffff16815260200160008152602001600081525090565b600080fd5b60007fffffffff0000000000000000000000000000000000000000000000000000000082169050919050565b6125a48161256f565b81146125af57600080fd5b50565b6000813590506125c18161259b565b92915050565b6000602082840312156125dd576125dc61256a565b5b60006125eb848285016125b2565b91505092915050565b60008115159050919050565b612609816125f4565b82525050565b60006020820190506126246000830184612600565b92915050565b600073ffffffffffffffffffffffffffffffffffffffff82169050919050565b60006126558261262a565b9050919050565b6126658161264a565b811461267057600080fd5b50565b6000813590506126828161265c565b92915050565b60006020828403121561269e5761269d61256a565b5b60006126ac84828501612673565b91505092915050565b6000819050919050565b6126c8816126b5565b81146126d357600080fd5b50565b6000813590506126e5816126bf565b92915050565b6000602082840312156127015761270061256a565b5b600061270f848285016126d6565b91505092915050565b612721816126b5565b82525050565b600060208201905061273c6000830184612718565b92915050565b600080604083850312156127595761275861256a565b5b6000612767858286016126d6565b925050602061277885828601612673565b9150509250929050565b6000819050919050565b61279581612782565b81146127a057600080fd5b50565b6000813590506127b28161278c565b92915050565b600080600080608085870312156127d2576127d161256a565b5b60006127e087828801612673565b94505060206127f1878288016127a3565b935050604061280287828801612673565b9250506060612813878288016127a3565b91505092959194509250565b61282881612782565b82525050565b6000602082019050612843600083018461281f565b92915050565b60006020828403121561285f5761285e61256a565b5b600061286d848285016127a3565b91505092915050565b61287f816126b5565b82525050565b61288e81612782565b82525050565b61289d8161264a565b82525050565b60e0820160008201516128b96000850182612876565b5060208201516128cc6020850182612885565b5060408201516128df6040850182612894565b5060608201516128f26060850182612894565b5060808201516129056080850182612894565b5060a082015161291860a0850182612885565b5060c082015161292b60c0850182612885565b50505050565b600060e08201905061294660008301846128a3565b92915050565b600080604083850312156129635761296261256a565b5b6000612971858286016127a3565b9250506020612982858286016127a3565b9150509250929050565b600080604083850312156129a3576129a261256a565b5b60006129b1858286016127a3565b92505060206129c285828601612673565b9150509250929050565b7f4e487b7100000000000000000000000000000000000000000000000000000000600052601160045260246000fd5b6000612a0682612782565b9150612a1183612782565b9250827fffffffffffffffffffffffffffffffffffffffffffffffffffffffffffffffff03821115612a4657612a456129cc565b5b828201905092915050565b600082825260208201905092915050565b7f6f6e6c792061646d696e00000000000000000000000000000000000000000000600082015250565b6000612a98600a83612a51565b9150612aa382612a62565b602082019050919050565b60006020820190508181036000830152612ac781612a8b565b9050919050565b612ad78161264a565b82525050565b6000602082019050612af26000830184612ace565b92915050565b600081519050612b078161278c565b92915050565b600060208284031215612b2357612b2261256a565b5b6000612b3184828501612af8565b91505092915050565b7f62616c616e6365206d7573742062652067726561746572207468616e206c6f6360008201527f6b656420746f6b656e2062616c616e6365730000000000000000000000000000602082015250565b6000612b96603283612a51565b9150612ba182612b3a565b604082019050919050565b60006020820190508181036000830152612bc581612b89565b9050919050565b7f636f756c64206e6f74207472616e7366657220746f6b656e7300000000000000600082015250565b6000612c02601983612a51565b9150612c0d82612bcc565b602082019050919050565b60006020820190508181036000830152612c3181612bf5565b9050919050565b7f416363657373436f6e74726f6c3a2063616e206f6e6c792072656e6f756e636560008201527f20726f6c657320666f722073656c660000000000000000000000000000000000602082015250565b6000612c94602f83612a51565b9150612c9f82612c38565b604082019050919050565b60006020820190508181036000830152612cc381612c87565b9050919050565b7f646966666572656e6365206265747765656e206c6f636b2074696d6520616e6460008201527f2063757272656e7420626c6f636b2074696d652073686f756c6420626520617460208201527f206c656173742035206d696e7574657300000000000000000000000000000000604082015250565b6000612d4c605083612a51565b9150612d5782612cca565b606082019050919050565b60006020820190508181036000830152612d7b81612d3f565b9050919050565b6000604082019050612d976000830185612ace565b612da46020830184612ace565b9392505050565b7f616c6c6f77616e636520746f6f206c6f77000000000000000000000000000000600082015250565b6000612de1601183612a51565b9150612dec82612dab565b602082019050919050565b60006020820190508181036000830152612e1081612dd4565b9050919050565b7f6d75737420706179206578616374206665650000000000000000000000000000600082015250565b6000612e4d601283612a51565b9150612e5882612e17565b602082019050919050565b60006020820190508181036000830152612e7c81612e40565b9050919050565b6000819050919050565b612e9e612e9982612782565b612e83565b82525050565b60008160601b9050919050565b6000612ebc82612ea4565b9050919050565b6000612ece82612eb1565b9050919050565b612ee6612ee18261264a565b612ec3565b82525050565b6000612ef88289612e8d565b602082019150612f088288612e8d565b602082019150612f188287612ed5565b601482019150612f288286612ed5565b601482019150612f388285612e8d565b602082019150612f488284612e8d565b602082019150819050979650505050505050565b600060e082019050612f71600083018a612718565b612f7e602083018961281f565b612f8b6040830188612ace565b612f986060830187612ace565b612fa56080830186612ace565b612fb260a083018561281f565b612fbf60c083018461281f565b98975050505050505050565b7f63616e6e6f742063616e63656c206265666f7265206c6f636b2065787069726160008201527f74696f6e00000000000000000000000000000000000000000000000000000000602082015250565b6000613027602483612a51565b915061303282612fcb565b604082019050919050565b600060208201905081810360008301526130568161301a565b9050919050565b7f696e76616c696420726571756573740000000000000000000000000000000000600082015250565b6000613093600f83612a51565b915061309e8261305d565b602082019050919050565b600060208201905081810360008301526130c281613086565b9050919050565b7f636f756c64206e6f742074616b65206665657300000000000000000000000000600082015250565b60006130ff601383612a51565b915061310a826130c9565b602082019050919050565b6000602082019050818103600083015261312e816130f2565b9050919050565b600061314082612782565b915061314b83612782565b92508282101561315e5761315d6129cc565b5b828203905092915050565b600060408201905061317e6000830185612ace565b61318b602083018461281f565b9392505050565b600081519050919050565b600081905092915050565b60005b838110156131c65780820151818401526020810190506131ab565b838111156131d5576000848401525b50505050565b60006131e682613192565b6131f0818561319d565b93506132008185602086016131a8565b80840191505092915050565b600061321882846131db565b915081905092915050565b7f636f756c64206e6f74207472616e7366657220746f6b656e0000000000000000600082015250565b6000613259601883612a51565b915061326482613223565b602082019050919050565b600060208201905081810360008301526132888161324c565b9050919050565b600081905092915050565b7f416363657373436f6e74726f6c3a206163636f756e7420000000000000000000600082015250565b60006132d060178361328f565b91506132db8261329a565b601782019050919050565b600081519050919050565b60006132fc826132e6565b613306818561328f565b93506133168185602086016131a8565b80840191505092915050565b7f206973206d697373696e6720726f6c6520000000000000000000000000000000600082015250565b600061335860118361328f565b915061336382613322565b601182019050919050565b6000613379826132c3565b915061338582856132f1565b91506133908261334b565b915061339c82846132f1565b91508190509392505050565b6000601f19601f8301169050919050565b60006133c4826132e6565b6133ce8185612a51565b93506133de8185602086016131a8565b6133e7816133a8565b840191505092915050565b6000602082019050818103600083015261340c81846133b9565b905092915050565b60006060820190506134296000830186612ace565b6134366020830185612ace565b613443604083018461281f565b949350505050565b7f62616c616e636520746f6f206c6f770000000000000000000000000000000000600082015250565b6000613481600f83612a51565b915061348c8261344b565b602082019050919050565b600060208201905081810360008301526134b081613474565b9050919050565b7f4e487b7100000000000000000000000000000000000000000000000000000000600052604160045260246000fd5b7f636f756c64206e6f74207472616e736665722065746865720000000000000000600082015250565b600061351c601883612a51565b9150613527826134e6565b602082019050919050565b6000602082019050818103600083015261354b8161350f565b9050919050565b600061355d82612782565b915061356883612782565b9250817fffffffffffffffffffffffffffffffffffffffffffffffffffffffffffffffff04831182151516156135a1576135a06129cc565b5b828202905092915050565b7f4e487b7100000000000000000000000000000000000000000000000000000000600052601260045260246000fd5b60006135e682612782565b91506135f183612782565b925082613601576136006135ac565b5b828204905092915050565b7f4e487b7100000000000000000000000000000000000000000000000000000000600052603260045260246000fd5b600061364682612782565b915060008203613659576136586129cc565b5b600182039050919050565b7f537472696e67733a20686578206c656e67746820696e73756666696369656e74600082015250565b600061369a602083612a51565b91506136a582613664565b602082019050919050565b600060208201905081810360008301526136c98161368d565b905091905056fe7472616e7366657246726f6d28616464726573732c616464726573732c75696e7432353629a26469706673582212207d5806a1e131a67f54d6f0b39e0d21408fa28b08c7cfb96ab40605d6237d713564736f6c634300080d0033",
  "linkReferences": {},
  "deployedLinkReferences": {}
}