{
  "_format": "hh-sol-artifact-1",
  "contractName": "Factory",
  "sourceName": "contracts/Factory.sol",
  "abi": [
    {
      "inputs": [
        {
          "internalType": "address",
          "name": "feeTaker_",
          "type": "address"
        }
      ],
      "stateMutability": "nonpayable",
      "type": "constructor"
    },
    {
      "anonymous": false,
      "inputs": [
        {
          "indexed": true,
          "internalType": "bytes32",
          "name": "role",
          "type": "bytes32"
        },
        {
          "indexed": true,
          "internalType": "bytes32",
          "name": "previousAdminRole",
          "type": "bytes32"
        },
        {
          "indexed": true,
          "internalType": "bytes32",
          "name": "newAdminRole",
          "type": "bytes32"
        }
      ],
      "name": "RoleAdminChanged",
      "type": "event"
    },
    {
      "anonymous": false,
      "inputs": [
        {
          "indexed": true,
          "internalType": "bytes32",
          "name": "role",
          "type": "bytes32"
        },
        {
          "indexed": true,
          "internalType": "address",
          "name": "account",
          "type": "address"
        },
        {
          "indexed": true,
          "internalType": "address",
          "name": "sender",
          "type": "address"
        }
      ],
      "name": "RoleGranted",
      "type": "event"
    },
    {
      "anonymous": false,
      "inputs": [
        {
          "indexed": true,
          "internalType": "bytes32",
          "name": "role",
          "type": "bytes32"
        },
        {
          "indexed": true,
          "internalType": "address",
          "name": "account",
          "type": "address"
        },
        {
          "indexed": true,
          "internalType": "address",
          "name": "sender",
          "type": "address"
        }
      ],
      "name": "RoleRevoked",
      "type": "event"
    },
    {
      "anonymous": false,
      "inputs": [
        {
          "indexed": false,
          "internalType": "bytes32",
          "name": "_id",
          "type": "bytes32"
        }
      ],
      "name": "TimelockCancelled",
      "type": "event"
    },
    {
      "anonymous": false,
      "inputs": [
        {
          "indexed": false,
          "internalType": "bytes32",
          "name": "_id",
          "type": "bytes32"
        },
        {
          "indexed": false,
          "internalType": "uint256",
          "name": "_amount",
          "type": "uint256"
        },
        {
          "indexed": false,
          "internalType": "address",
          "name": "_creator",
          "type": "address"
        },
        {
          "indexed": false,
          "internalType": "address",
          "name": "_recipient",
          "type": "address"
        },
        {
          "indexed": false,
          "internalType": "address",
          "name": "_token",
          "type": "address"
        },
        {
          "indexed": false,
          "internalType": "uint256",
          "name": "_lockedUntil",
          "type": "uint256"
        },
        {
          "indexed": false,
          "internalType": "uint256",
          "name": "_fee",
          "type": "uint256"
        }
      ],
      "name": "TimelockObjectCreated",
      "type": "event"
    },
    {
      "anonymous": false,
      "inputs": [
        {
          "indexed": false,
          "internalType": "bytes32",
          "name": "_id",
          "type": "bytes32"
        }
      ],
      "name": "TimelockProcessed",
      "type": "event"
    },
    {
      "inputs": [],
      "name": "DEFAULT_ADMIN_ROLE",
      "outputs": [
        {
          "internalType": "bytes32",
          "name": "",
          "type": "bytes32"
        }
      ],
      "stateMutability": "view",
      "type": "function"
    },
    {
      "inputs": [
        {
          "internalType": "uint256",
          "name": "",
          "type": "uint256"
        }
      ],
      "name": "_allTimelocks",
      "outputs": [
        {
          "internalType": "bytes32",
          "name": "",
          "type": "bytes32"
        }
      ],
      "stateMutability": "view",
      "type": "function"
    },
    {
      "inputs": [
        {
          "internalType": "uint256",
          "name": "lockTime_",
          "type": "uint256"
        },
        {
          "internalType": "uint256",
          "name": "amount_",
          "type": "uint256"
        }
      ],
      "name": "_calculateFee",
      "outputs": [
        {
          "internalType": "uint256",
          "name": "fee",
          "type": "uint256"
        }
      ],
      "stateMutability": "view",
      "type": "function"
    },
    {
      "inputs": [
        {
          "internalType": "bytes32",
          "name": "_timelockID",
          "type": "bytes32"
        }
      ],
      "name": "_cancelTx",
      "outputs": [
        {
          "internalType": "bool",
          "name": "",
          "type": "bool"
        }
      ],
      "stateMutability": "nonpayable",
      "type": "function"
    },
    {
      "inputs": [
        {
          "internalType": "bytes32",
          "name": "_timelockID",
          "type": "bytes32"
        }
      ],
      "name": "_getTimelock",
      "outputs": [
        {
          "components": [
            {
              "internalType": "bytes32",
              "name": "_id",
              "type": "bytes32"
            },
            {
              "internalType": "uint256",
              "name": "_amount",
              "type": "uint256"
            },
            {
              "internalType": "address",
              "name": "_creator",
              "type": "address"
            },
            {
              "internalType": "address",
              "name": "_recipient",
              "type": "address"
            },
            {
              "internalType": "address",
              "name": "_token",
              "type": "address"
            },
            {
              "internalType": "uint256",
              "name": "_lockedUntil",
              "type": "uint256"
            },
            {
              "internalType": "uint256",
              "name": "_fee",
              "type": "uint256"
            }
          ],
          "internalType": "struct IFactory.TimelockObject",
          "name": "",
          "type": "tuple"
        }
      ],
      "stateMutability": "view",
      "type": "function"
    },
    {
      "inputs": [
        {
          "internalType": "uint256",
          "name": "lockTime_",
          "type": "uint256"
        },
        {
          "internalType": "address",
          "name": "recipient_",
          "type": "address"
        }
      ],
      "name": "_lockEtherForLater",
      "outputs": [],
      "stateMutability": "payable",
      "type": "function"
    },
    {
      "inputs": [
        {
          "internalType": "address",
          "name": "token_",
          "type": "address"
        },
        {
          "internalType": "uint256",
          "name": "lockTime_",
          "type": "uint256"
        },
        {
          "internalType": "address",
          "name": "recipient_",
          "type": "address"
        },
        {
          "internalType": "uint256",
          "name": "amount_",
          "type": "uint256"
        }
      ],
      "name": "_lockTokenForLater",
      "outputs": [],
      "stateMutability": "payable",
      "type": "function"
    },
    {
      "inputs": [
        {
          "internalType": "bytes32",
          "name": "_timelockID",
          "type": "bytes32"
        }
      ],
      "name": "_proceedWithTx",
      "outputs": [
        {
          "internalType": "bool",
          "name": "",
          "type": "bool"
        }
      ],
      "stateMutability": "nonpayable",
      "type": "function"
    },
    {
      "inputs": [
        {
          "internalType": "address",
          "name": "feeTaker_",
          "type": "address"
        }
      ],
      "name": "_setFeeTaker",
      "outputs": [],
      "stateMutability": "nonpayable",
      "type": "function"
    },
    {
      "inputs": [
        {
          "internalType": "address",
          "name": "token",
          "type": "address"
        }
      ],
      "name": "_takeToken",
      "outputs": [],
      "stateMutability": "nonpayable",
      "type": "function"
    },
    {
      "inputs": [],
      "name": "_takeWithdrawableFees",
      "outputs": [],
      "stateMutability": "nonpayable",
      "type": "function"
    },
    {
      "inputs": [],
      "name": "_withdrawableFee",
      "outputs": [
        {
          "internalType": "uint256",
          "name": "",
          "type": "uint256"
        }
      ],
      "stateMutability": "view",
      "type": "function"
    },
    {
      "inputs": [],
      "name": "deployTime",
      "outputs": [
        {
          "internalType": "uint256",
          "name": "",
          "type": "uint256"
        }
      ],
      "stateMutability": "view",
      "type": "function"
    },
    {
      "inputs": [
        {
          "internalType": "bytes32",
          "name": "role",
          "type": "bytes32"
        }
      ],
      "name": "getRoleAdmin",
      "outputs": [
        {
          "internalType": "bytes32",
          "name": "",
          "type": "bytes32"
        }
      ],
      "stateMutability": "view",
      "type": "function"
    },
    {
      "inputs": [
        {
          "internalType": "bytes32",
          "name": "role",
          "type": "bytes32"
        },
        {
          "internalType": "address",
          "name": "account",
          "type": "address"
        }
      ],
      "name": "grantRole",
      "outputs": [],
      "stateMutability": "nonpayable",
      "type": "function"
    },
    {
      "inputs": [
        {
          "internalType": "bytes32",
          "name": "role",
          "type": "bytes32"
        },
        {
          "internalType": "address",
          "name": "account",
          "type": "address"
        }
      ],
      "name": "hasRole",
      "outputs": [
        {
          "internalType": "bool",
          "name": "",
          "type": "bool"
        }
      ],
      "stateMutability": "view",
      "type": "function"
    },
    {
      "inputs": [
        {
          "internalType": "bytes32",
          "name": "role",
          "type": "bytes32"
        },
        {
          "internalType": "address",
          "name": "account",
          "type": "address"
        }
      ],
      "name": "renounceRole",
      "outputs": [],
      "stateMutability": "nonpayable",
      "type": "function"
    },
    {
      "inputs": [
        {
          "internalType": "bytes32",
          "name": "role",
          "type": "bytes32"
        },
        {
          "internalType": "address",
          "name": "account",
          "type": "address"
        }
      ],
      "name": "revokeRole",
      "outputs": [],
      "stateMutability": "nonpayable",
      "type": "function"
    },
    {
      "inputs": [
        {
          "internalType": "bytes4",
          "name": "interfaceId",
          "type": "bytes4"
        }
      ],
      "name": "supportsInterface",
      "outputs": [
        {
          "internalType": "bool",
          "name": "",
          "type": "bool"
        }
      ],
      "stateMutability": "view",
      "type": "function"
    },
    {
      "stateMutability": "payable",
      "type": "receive"
    }
  ],
  "bytecode": "0x60a06040523480156200001157600080fd5b50604051620039fd380380620039fd833981810160405281019062000037919062000297565b6001600081905550620000636000801b62000057620000b360201b60201c565b620000bb60201b60201c565b80600460006101000a81548173ffffffffffffffffffffffffffffffffffffffff021916908373ffffffffffffffffffffffffffffffffffffffff160217905550426080818152505050620002c9565b600033905090565b620000cd8282620000d160201b60201c565b5050565b620000e38282620001c260201b60201c565b620001be57600180600084815260200190815260200160002060000160008373ffffffffffffffffffffffffffffffffffffffff1673ffffffffffffffffffffffffffffffffffffffff16815260200190815260200160002060006101000a81548160ff02191690831515021790555062000163620000b360201b60201c565b73ffffffffffffffffffffffffffffffffffffffff168173ffffffffffffffffffffffffffffffffffffffff16837f2f8788117e7eff1d82e926ec794901d17c78024a50270940304540a733656f0d60405160405180910390a45b5050565b60006001600084815260200190815260200160002060000160008373ffffffffffffffffffffffffffffffffffffffff1673ffffffffffffffffffffffffffffffffffffffff16815260200190815260200160002060009054906101000a900460ff16905092915050565b600080fd5b600073ffffffffffffffffffffffffffffffffffffffff82169050919050565b60006200025f8262000232565b9050919050565b620002718162000252565b81146200027d57600080fd5b50565b600081519050620002918162000266565b92915050565b600060208284031215620002b057620002af6200022d565b5b6000620002c08482850162000280565b91505092915050565b608051613711620002ec60003960008181611111015261179301526137116000f3fe6080604052600436106101185760003560e01c80637a40624b116100a0578063c5ead62211610064578063c5ead622146103c1578063cacd4c1a146103ea578063d3ad1cbf14610427578063d547741f14610464578063ec94d6351461048d5761011f565b80637a40624b146102b457806391d14854146102df578063a217fddf1461031c578063b2bb58b914610347578063b3e94e98146103845761011f565b806336568abe116100e757806336568abe146101f05780633baad4bf146102195780635ee73fe91461023557806365c07c68146102725780636f8e07b81461029d5761011f565b806301ffc9a71461012457806317d68ed514610161578063248a9ca31461018a5780632f2ff15d146101c75761011f565b3661011f57005b600080fd5b34801561013057600080fd5b5061014b600480360381019061014691906125ad565b6104a9565b60405161015891906125f5565b60405180910390f35b34801561016d57600080fd5b506101886004803603810190610183919061266e565b610523565b005b34801561019657600080fd5b506101b160048036038101906101ac91906126d1565b6107af565b6040516101be919061270d565b60405180910390f35b3480156101d357600080fd5b506101ee60048036038101906101e99190612728565b6107cf565b005b3480156101fc57600080fd5b5061021760048036038101906102129190612728565b6107f8565b005b610233600480360381019061022e919061279e565b61087b565b005b34801561024157600080fd5b5061025c600480360381019061025791906126d1565b610c86565b60405161026991906125f5565b60405180910390f35b34801561027e57600080fd5b50610287611047565b6040516102949190612814565b60405180910390f35b3480156102a957600080fd5b506102b261104d565b005b3480156102c057600080fd5b506102c961110f565b6040516102d69190612814565b60405180910390f35b3480156102eb57600080fd5b5061030660048036038101906103019190612728565b611133565b60405161031391906125f5565b60405180910390f35b34801561032857600080fd5b5061033161119e565b60405161033e919061270d565b60405180910390f35b34801561035357600080fd5b5061036e6004803603810190610369919061282f565b6111a5565b60405161037b919061270d565b60405180910390f35b34801561039057600080fd5b506103ab60048036038101906103a691906126d1565b6111c9565b6040516103b89190612917565b60405180910390f35b3480156103cd57600080fd5b506103e860048036038101906103e3919061266e565b611320565b005b3480156103f657600080fd5b50610411600480360381019061040c91906126d1565b6113b7565b60405161041e91906125f5565b60405180910390f35b34801561043357600080fd5b5061044e60048036038101906104499190612932565b611785565b60405161045b9190612814565b60405180910390f35b34801561047057600080fd5b5061048b60048036038101906104869190612728565b611819565b005b6104a760048036038101906104a29190612972565b611842565b005b60007f7965db0b000000000000000000000000000000000000000000000000000000007bffffffffffffffffffffffffffffffffffffffffffffffffffffffff1916827bffffffffffffffffffffffffffffffffffffffffffffffffffffffff1916148061051c575061051b82611aed565b5b9050919050565b6105376000801b610532611b57565b611133565b610576576040517f08c379a000000000000000000000000000000000000000000000000000000000815260040161056d90612a0f565b60405180910390fd5b600360008273ffffffffffffffffffffffffffffffffffffffff1673ffffffffffffffffffffffffffffffffffffffff168152602001908152602001600020548173ffffffffffffffffffffffffffffffffffffffff166370a08231306040518263ffffffff1660e01b81526004016105ef9190612a3e565b602060405180830381865afa15801561060c573d6000803e3d6000fd5b505050506040513d601f19601f820116820180604052508101906106309190612a6e565b11610670576040517f08c379a000000000000000000000000000000000000000000000000000000000815260040161066790612b0d565b60405180910390fd5b600061073d600360008473ffffffffffffffffffffffffffffffffffffffff1673ffffffffffffffffffffffffffffffffffffffff168152602001908152602001600020548373ffffffffffffffffffffffffffffffffffffffff166370a08231306040518263ffffffff1660e01b81526004016106ee9190612a3e565b602060405180830381865afa15801561070b573d6000803e3d6000fd5b505050506040513d601f19601f8201168201806040525081019061072f9190612a6e565b611b5f90919063ffffffff16565b905061076c82600460009054906101000a900473ffffffffffffffffffffffffffffffffffffffff1683611b75565b6107ab576040517f08c379a00000000000000000000000000000000000000000000000000000000081526004016107a290612b79565b60405180910390fd5b5050565b600060016000838152602001908152602001600020600101549050919050565b6107d8826107af565b6107e9816107e4611b57565b611cdb565b6107f38383611d78565b505050565b610800611b57565b73ffffffffffffffffffffffffffffffffffffffff168173ffffffffffffffffffffffffffffffffffffffff161461086d576040517f08c379a000000000000000000000000000000000000000000000000000000000815260040161086490612c0b565b60405180910390fd5b6108778282611e58565b5050565b61012c6108914285611b5f90919063ffffffff16565b10156108d2576040517f08c379a00000000000000000000000000000000000000000000000000000000081526004016108c990612cc3565b60405180910390fd5b808473ffffffffffffffffffffffffffffffffffffffff1663dd62ed3e6108f7611b57565b306040518363ffffffff1660e01b8152600401610915929190612ce3565b602060405180830381865afa158015610932573d6000803e3d6000fd5b505050506040513d601f19601f820116820180604052508101906109569190612a6e565b1015610997576040517f08c379a000000000000000000000000000000000000000000000000000000000815260040161098e90612d58565b60405180910390fd5b60006109a38483611785565b9050803410156109e8576040517f08c379a00000000000000000000000000000000000000000000000000000000081526004016109df90612dc4565b60405180910390fd5b60008483856109f5611b57565b8542604051602001610a0c96959493929190612e4d565b604051602081830303815290604052805190602001209050610a3786610a30611b57565b3086611f3a565b5082600360008873ffffffffffffffffffffffffffffffffffffffff1673ffffffffffffffffffffffffffffffffffffffff168152602001908152602001600020819055506040518060e00160405280828152602001848152602001610a9b611b57565b73ffffffffffffffffffffffffffffffffffffffff1681526020018573ffffffffffffffffffffffffffffffffffffffff1681526020018773ffffffffffffffffffffffffffffffffffffffff1681526020018681526020018381525060026000838152602001908152602001600020600082015181600001556020820151816001015560408201518160020160006101000a81548173ffffffffffffffffffffffffffffffffffffffff021916908373ffffffffffffffffffffffffffffffffffffffff16021790555060608201518160030160006101000a81548173ffffffffffffffffffffffffffffffffffffffff021916908373ffffffffffffffffffffffffffffffffffffffff16021790555060808201518160040160006101000a81548173ffffffffffffffffffffffffffffffffffffffff021916908373ffffffffffffffffffffffffffffffffffffffff16021790555060a0820151816005015560c0820151816006015590505060068190806001815401808255809150506001900390600052602060002001600090919091909150557fa24e95845a1f91c9ba3be5cc98b48d12d61cd22bdc8ae2d3dfc3aedd24b506328184610c5f611b57565b878a8a88604051610c769796959493929190612ebd565b60405180910390a1505050505050565b6000806002600084815260200190815260200160002090508060050154421015610ce5576040517f08c379a0000000000000000000000000000000000000000000000000000000008152600401610cdc90612f9e565b60405180910390fd5b610ced611b57565b73ffffffffffffffffffffffffffffffffffffffff168160020160009054906101000a900473ffffffffffffffffffffffffffffffffffffffff1673ffffffffffffffffffffffffffffffffffffffff16148015610d5257506000801b816000015414155b610d91576040517f08c379a0000000000000000000000000000000000000000000000000000000008152600401610d889061300a565b60405180910390fd5b600073ffffffffffffffffffffffffffffffffffffffff168160040160009054906101000a900473ffffffffffffffffffffffffffffffffffffffff1673ffffffffffffffffffffffffffffffffffffffff1603610e2157610e1b8160020160009054906101000a900473ffffffffffffffffffffffffffffffffffffffff168260010154612086565b50610f5b565b610e788160040160009054906101000a900473ffffffffffffffffffffffffffffffffffffffff168260020160009054906101000a900473ffffffffffffffffffffffffffffffffffffffff168360010154611b75565b50610ef38160010154600360008460040160009054906101000a900473ffffffffffffffffffffffffffffffffffffffff1673ffffffffffffffffffffffffffffffffffffffff1673ffffffffffffffffffffffffffffffffffffffff16815260200190815260200160002054611b5f90919063ffffffff16565b600360008360040160009054906101000a900473ffffffffffffffffffffffffffffffffffffffff1673ffffffffffffffffffffffffffffffffffffffff1673ffffffffffffffffffffffffffffffffffffffff168152602001908152602001600020819055505b6002600084815260200190815260200160002060008082016000905560018201600090556002820160006101000a81549073ffffffffffffffffffffffffffffffffffffffff02191690556003820160006101000a81549073ffffffffffffffffffffffffffffffffffffffff02191690556004820160006101000a81549073ffffffffffffffffffffffffffffffffffffffff02191690556005820160009055600682016000905550507fa32a56a4fb497457a2ff2c7acd600aac5dd868b3c2fd537c030e2bbfaecd47e183604051611035919061270d565b60405180910390a16001915050919050565b60055481565b6110616000801b61105c611b57565b611133565b6110a0576040517f08c379a000000000000000000000000000000000000000000000000000000000815260040161109790612a0f565b60405180910390fd5b6110ce600460009054906101000a900473ffffffffffffffffffffffffffffffffffffffff16600554612086565b61110d576040517f08c379a000000000000000000000000000000000000000000000000000000000815260040161110490613076565b60405180910390fd5b565b7f000000000000000000000000000000000000000000000000000000000000000081565b60006001600084815260200190815260200160002060000160008373ffffffffffffffffffffffffffffffffffffffff1673ffffffffffffffffffffffffffffffffffffffff16815260200190815260200160002060009054906101000a900460ff16905092915050565b6000801b81565b600681815481106111b557600080fd5b906000526020600020016000915090505481565b6111d16124ce565b600260008381526020019081526020016000206040518060e001604052908160008201548152602001600182015481526020016002820160009054906101000a900473ffffffffffffffffffffffffffffffffffffffff1673ffffffffffffffffffffffffffffffffffffffff1673ffffffffffffffffffffffffffffffffffffffff1681526020016003820160009054906101000a900473ffffffffffffffffffffffffffffffffffffffff1673ffffffffffffffffffffffffffffffffffffffff1673ffffffffffffffffffffffffffffffffffffffff1681526020016004820160009054906101000a900473ffffffffffffffffffffffffffffffffffffffff1673ffffffffffffffffffffffffffffffffffffffff1673ffffffffffffffffffffffffffffffffffffffff168152602001600582015481526020016006820154815250509050919050565b6113346000801b61132f611b57565b611133565b611373576040517f08c379a000000000000000000000000000000000000000000000000000000000815260040161136a90612a0f565b60405180910390fd5b80600460006101000a81548173ffffffffffffffffffffffffffffffffffffffff021916908373ffffffffffffffffffffffffffffffffffffffff16021790555050565b6000806002600084815260200190815260200160002090506113d7611b57565b73ffffffffffffffffffffffffffffffffffffffff168160020160009054906101000a900473ffffffffffffffffffffffffffffffffffffffff1673ffffffffffffffffffffffffffffffffffffffff1614801561143c57506000801b816000015414155b61147b576040517f08c379a00000000000000000000000000000000000000000000000000000000081526004016114729061300a565b60405180910390fd5b600073ffffffffffffffffffffffffffffffffffffffff168160040160009054906101000a900473ffffffffffffffffffffffffffffffffffffffff1673ffffffffffffffffffffffffffffffffffffffff16036115405761151b8160030160009054906101000a900473ffffffffffffffffffffffffffffffffffffffff1661151683600601548460010154611b5f90919063ffffffff16565b612086565b5061153581600601546005546121d690919063ffffffff16565b600581905550611699565b6115978160040160009054906101000a900473ffffffffffffffffffffffffffffffffffffffff168260030160009054906101000a900473ffffffffffffffffffffffffffffffffffffffff168360010154611b75565b506116128160010154600360008460040160009054906101000a900473ffffffffffffffffffffffffffffffffffffffff1673ffffffffffffffffffffffffffffffffffffffff1673ffffffffffffffffffffffffffffffffffffffff16815260200190815260200160002054611b5f90919063ffffffff16565b600360008360040160009054906101000a900473ffffffffffffffffffffffffffffffffffffffff1673ffffffffffffffffffffffffffffffffffffffff1673ffffffffffffffffffffffffffffffffffffffff1681526020019081526020016000208190555061169281600601546005546121d690919063ffffffff16565b6005819055505b6002600084815260200190815260200160002060008082016000905560018201600090556002820160006101000a81549073ffffffffffffffffffffffffffffffffffffffff02191690556003820160006101000a81549073ffffffffffffffffffffffffffffffffffffffff02191690556004820160006101000a81549073ffffffffffffffffffffffffffffffffffffffff02191690556005820160009055600682016000905550507fbc69a882ed965208c3e3d7ad3ab387a98f8f122da25ec24ac24049bd96c9b23a83604051611773919061270d565b60405180910390a16001915050919050565b6000806117ce426117c0600a7f00000000000000000000000000000000000000000000000000000000000000006121ec90919063ffffffff16565b61220290919063ffffffff16565b905061181061180b856117fd600a6117ef88876121ec90919063ffffffff16565b61220290919063ffffffff16565b611b5f90919063ffffffff16565b612218565b91505092915050565b611822826107af565b6118338161182e611b57565b611cdb565b61183d8383611e58565b505050565b61012c6118584284611b5f90919063ffffffff16565b1015611899576040517f08c379a000000000000000000000000000000000000000000000000000000000815260040161189090612cc3565b60405180910390fd5b60006118a58334611785565b905060008334846118b4611b57565b85426040516020016118cb96959493929190612e4d565b6040516020818303038152906040528051906020012090506040518060e00160405280828152602001348152602001611902611b57565b73ffffffffffffffffffffffffffffffffffffffff1681526020018473ffffffffffffffffffffffffffffffffffffffff168152602001600073ffffffffffffffffffffffffffffffffffffffff1681526020018581526020018381525060026000838152602001908152602001600020600082015181600001556020820151816001015560408201518160020160006101000a81548173ffffffffffffffffffffffffffffffffffffffff021916908373ffffffffffffffffffffffffffffffffffffffff16021790555060608201518160030160006101000a81548173ffffffffffffffffffffffffffffffffffffffff021916908373ffffffffffffffffffffffffffffffffffffffff16021790555060808201518160040160006101000a81548173ffffffffffffffffffffffffffffffffffffffff021916908373ffffffffffffffffffffffffffffffffffffffff16021790555060a0820151816005015560c0820151816006015590505060068190806001815401808255809150506001900390600052602060002001600090919091909150557fa24e95845a1f91c9ba3be5cc98b48d12d61cd22bdc8ae2d3dfc3aedd24b506328134611ac7611b57565b8660008988604051611adf9796959493929190612ebd565b60405180910390a150505050565b60007f01ffc9a7000000000000000000000000000000000000000000000000000000007bffffffffffffffffffffffffffffffffffffffffffffffffffffffff1916827bffffffffffffffffffffffffffffffffffffffffffffffffffffffff1916149050919050565b600033905090565b60008183611b6d91906130c5565b905092915050565b6000808473ffffffffffffffffffffffffffffffffffffffff166040518060400160405280601981526020017f7472616e7366657228616464726573732c75696e743235362900000000000000815250805190602001208585604051602401611bdf9291906130f9565b604051602081830303815290604052907bffffffffffffffffffffffffffffffffffffffffffffffffffffffff19166020820180517bffffffffffffffffffffffffffffffffffffffffffffffffffffffff8381831617835250505050604051611c49919061319c565b6000604051808303816000865af19150503d8060008114611c86576040519150601f19603f3d011682016040523d82523d6000602084013e611c8b565b606091505b5050905080611ccf576040517f08c379a0000000000000000000000000000000000000000000000000000000008152600401611cc6906131ff565b60405180910390fd5b60019150509392505050565b611ce58282611133565b611d7457611d0a8173ffffffffffffffffffffffffffffffffffffffff166014612292565b611d188360001c6020612292565b604051602001611d299291906132fe565b6040516020818303038152906040526040517f08c379a0000000000000000000000000000000000000000000000000000000008152600401611d6b9190613382565b60405180910390fd5b5050565b611d828282611133565b611e5457600180600084815260200190815260200160002060000160008373ffffffffffffffffffffffffffffffffffffffff1673ffffffffffffffffffffffffffffffffffffffff16815260200190815260200160002060006101000a81548160ff021916908315150217905550611df9611b57565b73ffffffffffffffffffffffffffffffffffffffff168173ffffffffffffffffffffffffffffffffffffffff16837f2f8788117e7eff1d82e926ec794901d17c78024a50270940304540a733656f0d60405160405180910390a45b5050565b611e628282611133565b15611f365760006001600084815260200190815260200160002060000160008373ffffffffffffffffffffffffffffffffffffffff1673ffffffffffffffffffffffffffffffffffffffff16815260200190815260200160002060006101000a81548160ff021916908315150217905550611edb611b57565b73ffffffffffffffffffffffffffffffffffffffff168173ffffffffffffffffffffffffffffffffffffffff16837ff6391f5c32d9c69d2a47ea670b442974b53935d1edc7fd64eb21e047a839171b60405160405180910390a45b5050565b6000808573ffffffffffffffffffffffffffffffffffffffff166040518060600160405280602581526020016136b76025913980519060200120868686604051602401611f89939291906133a4565b604051602081830303815290604052907bffffffffffffffffffffffffffffffffffffffffffffffffffffffff19166020820180517bffffffffffffffffffffffffffffffffffffffffffffffffffffffff8381831617835250505050604051611ff3919061319c565b6000604051808303816000865af19150503d8060008114612030576040519150601f19603f3d011682016040523d82523d6000602084013e612035565b606091505b5050905080612079576040517f08c379a0000000000000000000000000000000000000000000000000000000008152600401612070906131ff565b60405180910390fd5b6001915050949350505050565b600080479050828110156120cf576040517f08c379a00000000000000000000000000000000000000000000000000000000081526004016120c690613427565b60405180910390fd5b60008473ffffffffffffffffffffffffffffffffffffffff1684600067ffffffffffffffff81111561210457612103613447565b5b6040519080825280601f01601f1916602001820160405280156121365781602001600182028036833780820191505090505b50604051612144919061319c565b60006040518083038185875af1925050503d8060008114612181576040519150601f19603f3d011682016040523d82523d6000602084013e612186565b606091505b50509050806121ca576040517f08c379a00000000000000000000000000000000000000000000000000000000081526004016121c1906134c2565b60405180910390fd5b60019250505092915050565b600081836121e491906134e2565b905092915050565b600081836121fa9190613538565b905092915050565b6000818361221091906135c1565b905092915050565b6000600382111561227f578190506000600160028461223791906135c1565b61224191906134e2565b90505b8181101561227957809150600281828561225e91906135c1565b61226891906134e2565b61227291906135c1565b9050612244565b5061228d565b6000821461228c57600190505b5b919050565b6060600060028360026122a59190613538565b6122af91906134e2565b67ffffffffffffffff8111156122c8576122c7613447565b5b6040519080825280601f01601f1916602001820160405280156122fa5781602001600182028036833780820191505090505b5090507f300000000000000000000000000000000000000000000000000000000000000081600081518110612332576123316135f2565b5b60200101907effffffffffffffffffffffffffffffffffffffffffffffffffffffffffffff1916908160001a9053507f780000000000000000000000000000000000000000000000000000000000000081600181518110612396576123956135f2565b5b60200101907effffffffffffffffffffffffffffffffffffffffffffffffffffffffffffff1916908160001a905350600060018460026123d69190613538565b6123e091906134e2565b90505b6001811115612480577f3031323334353637383961626364656600000000000000000000000000000000600f861660108110612422576124216135f2565b5b1a60f81b828281518110612439576124386135f2565b5b60200101907effffffffffffffffffffffffffffffffffffffffffffffffffffffffffffff1916908160001a905350600485901c94508061247990613621565b90506123e3565b50600084146124c4576040517f08c379a00000000000000000000000000000000000000000000000000000000081526004016124bb90613696565b60405180910390fd5b8091505092915050565b6040518060e001604052806000801916815260200160008152602001600073ffffffffffffffffffffffffffffffffffffffff168152602001600073ffffffffffffffffffffffffffffffffffffffff168152602001600073ffffffffffffffffffffffffffffffffffffffff16815260200160008152602001600081525090565b600080fd5b60007fffffffff0000000000000000000000000000000000000000000000000000000082169050919050565b61258a81612555565b811461259557600080fd5b50565b6000813590506125a781612581565b92915050565b6000602082840312156125c3576125c2612550565b5b60006125d184828501612598565b91505092915050565b60008115159050919050565b6125ef816125da565b82525050565b600060208201905061260a60008301846125e6565b92915050565b600073ffffffffffffffffffffffffffffffffffffffff82169050919050565b600061263b82612610565b9050919050565b61264b81612630565b811461265657600080fd5b50565b60008135905061266881612642565b92915050565b60006020828403121561268457612683612550565b5b600061269284828501612659565b91505092915050565b6000819050919050565b6126ae8161269b565b81146126b957600080fd5b50565b6000813590506126cb816126a5565b92915050565b6000602082840312156126e7576126e6612550565b5b60006126f5848285016126bc565b91505092915050565b6127078161269b565b82525050565b600060208201905061272260008301846126fe565b92915050565b6000806040838503121561273f5761273e612550565b5b600061274d858286016126bc565b925050602061275e85828601612659565b9150509250929050565b6000819050919050565b61277b81612768565b811461278657600080fd5b50565b60008135905061279881612772565b92915050565b600080600080608085870312156127b8576127b7612550565b5b60006127c687828801612659565b94505060206127d787828801612789565b93505060406127e887828801612659565b92505060606127f987828801612789565b91505092959194509250565b61280e81612768565b82525050565b60006020820190506128296000830184612805565b92915050565b60006020828403121561284557612844612550565b5b600061285384828501612789565b91505092915050565b6128658161269b565b82525050565b61287481612768565b82525050565b61288381612630565b82525050565b60e08201600082015161289f600085018261285c565b5060208201516128b2602085018261286b565b5060408201516128c5604085018261287a565b5060608201516128d8606085018261287a565b5060808201516128eb608085018261287a565b5060a08201516128fe60a085018261286b565b5060c082015161291160c085018261286b565b50505050565b600060e08201905061292c6000830184612889565b92915050565b6000806040838503121561294957612948612550565b5b600061295785828601612789565b925050602061296885828601612789565b9150509250929050565b6000806040838503121561298957612988612550565b5b600061299785828601612789565b92505060206129a885828601612659565b9150509250929050565b600082825260208201905092915050565b7f6f6e6c792061646d696e00000000000000000000000000000000000000000000600082015250565b60006129f9600a836129b2565b9150612a04826129c3565b602082019050919050565b60006020820190508181036000830152612a28816129ec565b9050919050565b612a3881612630565b82525050565b6000602082019050612a536000830184612a2f565b92915050565b600081519050612a6881612772565b92915050565b600060208284031215612a8457612a83612550565b5b6000612a9284828501612a59565b91505092915050565b7f62616c616e6365206d7573742062652067726561746572207468616e206c6f6360008201527f6b656420746f6b656e2062616c616e6365730000000000000000000000000000602082015250565b6000612af76032836129b2565b9150612b0282612a9b565b604082019050919050565b60006020820190508181036000830152612b2681612aea565b9050919050565b7f636f756c64206e6f74207472616e7366657220746f6b656e7300000000000000600082015250565b6000612b636019836129b2565b9150612b6e82612b2d565b602082019050919050565b60006020820190508181036000830152612b9281612b56565b9050919050565b7f416363657373436f6e74726f6c3a2063616e206f6e6c792072656e6f756e636560008201527f20726f6c657320666f722073656c660000000000000000000000000000000000602082015250565b6000612bf5602f836129b2565b9150612c0082612b99565b604082019050919050565b60006020820190508181036000830152612c2481612be8565b9050919050565b7f646966666572656e6365206265747765656e206c6f636b2074696d6520616e6460008201527f2063757272656e7420626c6f636b2074696d652073686f756c6420626520617460208201527f206c656173742035206d696e7574657300000000000000000000000000000000604082015250565b6000612cad6050836129b2565b9150612cb882612c2b565b606082019050919050565b60006020820190508181036000830152612cdc81612ca0565b9050919050565b6000604082019050612cf86000830185612a2f565b612d056020830184612a2f565b9392505050565b7f616c6c6f77616e636520746f6f206c6f77000000000000000000000000000000600082015250565b6000612d426011836129b2565b9150612d4d82612d0c565b602082019050919050565b60006020820190508181036000830152612d7181612d35565b9050919050565b7f6d75737420706179206578616374206665650000000000000000000000000000600082015250565b6000612dae6012836129b2565b9150612db982612d78565b602082019050919050565b60006020820190508181036000830152612ddd81612da1565b9050919050565b6000819050919050565b612dff612dfa82612768565b612de4565b82525050565b60008160601b9050919050565b6000612e1d82612e05565b9050919050565b6000612e2f82612e12565b9050919050565b612e47612e4282612630565b612e24565b82525050565b6000612e598289612dee565b602082019150612e698288612dee565b602082019150612e798287612e36565b601482019150612e898286612e36565b601482019150612e998285612dee565b602082019150612ea98284612dee565b602082019150819050979650505050505050565b600060e082019050612ed2600083018a6126fe565b612edf6020830189612805565b612eec6040830188612a2f565b612ef96060830187612a2f565b612f066080830186612a2f565b612f1360a0830185612805565b612f2060c0830184612805565b98975050505050505050565b7f63616e6e6f742063616e63656c206265666f7265206c6f636b2065787069726160008201527f74696f6e00000000000000000000000000000000000000000000000000000000602082015250565b6000612f886024836129b2565b9150612f9382612f2c565b604082019050919050565b60006020820190508181036000830152612fb781612f7b565b9050919050565b7f696e76616c696420726571756573740000000000000000000000000000000000600082015250565b6000612ff4600f836129b2565b9150612fff82612fbe565b602082019050919050565b6000602082019050818103600083015261302381612fe7565b9050919050565b7f636f756c64206e6f742074616b65206665657300000000000000000000000000600082015250565b60006130606013836129b2565b915061306b8261302a565b602082019050919050565b6000602082019050818103600083015261308f81613053565b9050919050565b7f4e487b7100000000000000000000000000000000000000000000000000000000600052601160045260246000fd5b60006130d082612768565b91506130db83612768565b9250828210156130ee576130ed613096565b5b828203905092915050565b600060408201905061310e6000830185612a2f565b61311b6020830184612805565b9392505050565b600081519050919050565b600081905092915050565b60005b8381101561315657808201518184015260208101905061313b565b83811115613165576000848401525b50505050565b600061317682613122565b613180818561312d565b9350613190818560208601613138565b80840191505092915050565b60006131a8828461316b565b915081905092915050565b7f636f756c64206e6f74207472616e7366657220746f6b656e0000000000000000600082015250565b60006131e96018836129b2565b91506131f4826131b3565b602082019050919050565b60006020820190508181036000830152613218816131dc565b9050919050565b600081905092915050565b7f416363657373436f6e74726f6c3a206163636f756e7420000000000000000000600082015250565b600061326060178361321f565b915061326b8261322a565b601782019050919050565b600081519050919050565b600061328c82613276565b613296818561321f565b93506132a6818560208601613138565b80840191505092915050565b7f206973206d697373696e6720726f6c6520000000000000000000000000000000600082015250565b60006132e860118361321f565b91506132f3826132b2565b601182019050919050565b600061330982613253565b91506133158285613281565b9150613320826132db565b915061332c8284613281565b91508190509392505050565b6000601f19601f8301169050919050565b600061335482613276565b61335e81856129b2565b935061336e818560208601613138565b61337781613338565b840191505092915050565b6000602082019050818103600083015261339c8184613349565b905092915050565b60006060820190506133b96000830186612a2f565b6133c66020830185612a2f565b6133d36040830184612805565b949350505050565b7f62616c616e636520746f6f206c6f770000000000000000000000000000000000600082015250565b6000613411600f836129b2565b915061341c826133db565b602082019050919050565b6000602082019050818103600083015261344081613404565b9050919050565b7f4e487b7100000000000000000000000000000000000000000000000000000000600052604160045260246000fd5b7f636f756c64206e6f74207472616e736665722065746865720000000000000000600082015250565b60006134ac6018836129b2565b91506134b782613476565b602082019050919050565b600060208201905081810360008301526134db8161349f565b9050919050565b60006134ed82612768565b91506134f883612768565b9250827fffffffffffffffffffffffffffffffffffffffffffffffffffffffffffffffff0382111561352d5761352c613096565b5b828201905092915050565b600061354382612768565b915061354e83612768565b9250817fffffffffffffffffffffffffffffffffffffffffffffffffffffffffffffffff048311821515161561358757613586613096565b5b828202905092915050565b7f4e487b7100000000000000000000000000000000000000000000000000000000600052601260045260246000fd5b60006135cc82612768565b91506135d783612768565b9250826135e7576135e6613592565b5b828204905092915050565b7f4e487b7100000000000000000000000000000000000000000000000000000000600052603260045260246000fd5b600061362c82612768565b91506000820361363f5761363e613096565b5b600182039050919050565b7f537472696e67733a20686578206c656e67746820696e73756666696369656e74600082015250565b60006136806020836129b2565b915061368b8261364a565b602082019050919050565b600060208201905081810360008301526136af81613673565b905091905056fe7472616e7366657246726f6d28616464726573732c616464726573732c75696e7432353629a264697066735822122078a4db595fc254eac047b7a27474d7a56dda8f3f8815a1b158e2b567fa9c8bee64736f6c634300080d0033",
  "linkReferences": {},
  "deployedLinkReferences": {}
}