{
  "_format": "hh-sol-artifact-1",
  "contractName": "Factory",
  "sourceName": "contracts/Factory.sol",
  "abi": [
    {
      "inputs": [
        {
          "internalType": "address",
          "name": "feeTaker_",
          "type": "address"
        }
      ],
      "stateMutability": "nonpayable",
      "type": "constructor"
    },
    {
      "anonymous": false,
      "inputs": [
        {
          "indexed": true,
          "internalType": "bytes32",
          "name": "role",
          "type": "bytes32"
        },
        {
          "indexed": true,
          "internalType": "bytes32",
          "name": "previousAdminRole",
          "type": "bytes32"
        },
        {
          "indexed": true,
          "internalType": "bytes32",
          "name": "newAdminRole",
          "type": "bytes32"
        }
      ],
      "name": "RoleAdminChanged",
      "type": "event"
    },
    {
      "anonymous": false,
      "inputs": [
        {
          "indexed": true,
          "internalType": "bytes32",
          "name": "role",
          "type": "bytes32"
        },
        {
          "indexed": true,
          "internalType": "address",
          "name": "account",
          "type": "address"
        },
        {
          "indexed": true,
          "internalType": "address",
          "name": "sender",
          "type": "address"
        }
      ],
      "name": "RoleGranted",
      "type": "event"
    },
    {
      "anonymous": false,
      "inputs": [
        {
          "indexed": true,
          "internalType": "bytes32",
          "name": "role",
          "type": "bytes32"
        },
        {
          "indexed": true,
          "internalType": "address",
          "name": "account",
          "type": "address"
        },
        {
          "indexed": true,
          "internalType": "address",
          "name": "sender",
          "type": "address"
        }
      ],
      "name": "RoleRevoked",
      "type": "event"
    },
    {
      "anonymous": false,
      "inputs": [
        {
          "indexed": false,
          "internalType": "bytes32",
          "name": "_id",
          "type": "bytes32"
        }
      ],
      "name": "TimelockCancelled",
      "type": "event"
    },
    {
      "anonymous": false,
      "inputs": [
        {
          "indexed": false,
          "internalType": "bytes32",
          "name": "_id",
          "type": "bytes32"
        },
        {
          "indexed": false,
          "internalType": "uint256",
          "name": "_amount",
          "type": "uint256"
        },
        {
          "indexed": false,
          "internalType": "address",
          "name": "_creator",
          "type": "address"
        },
        {
          "indexed": false,
          "internalType": "address",
          "name": "_recipient",
          "type": "address"
        },
        {
          "indexed": false,
          "internalType": "address",
          "name": "_token",
          "type": "address"
        },
        {
          "indexed": false,
          "internalType": "uint256",
          "name": "_lockedUntil",
          "type": "uint256"
        },
        {
          "indexed": false,
          "internalType": "uint256",
          "name": "_fee",
          "type": "uint256"
        }
      ],
      "name": "TimelockObjectCreated",
      "type": "event"
    },
    {
      "anonymous": false,
      "inputs": [
        {
          "indexed": false,
          "internalType": "bytes32",
          "name": "_id",
          "type": "bytes32"
        }
      ],
      "name": "TimelockProcessed",
      "type": "event"
    },
    {
      "inputs": [],
      "name": "DEFAULT_ADMIN_ROLE",
      "outputs": [
        {
          "internalType": "bytes32",
          "name": "",
          "type": "bytes32"
        }
      ],
      "stateMutability": "view",
      "type": "function"
    },
    {
      "inputs": [
        {
          "internalType": "uint256",
          "name": "",
          "type": "uint256"
        }
      ],
      "name": "_allTimelocks",
      "outputs": [
        {
          "internalType": "bytes32",
          "name": "",
          "type": "bytes32"
        }
      ],
      "stateMutability": "view",
      "type": "function"
    },
    {
      "inputs": [
        {
          "internalType": "uint256",
          "name": "lockTime_",
          "type": "uint256"
        },
        {
          "internalType": "uint256",
          "name": "amount_",
          "type": "uint256"
        },
        {
          "internalType": "address",
          "name": "_creator",
          "type": "address"
        }
      ],
      "name": "_calculateFee",
      "outputs": [
        {
          "internalType": "uint256",
          "name": "",
          "type": "uint256"
        }
      ],
      "stateMutability": "view",
      "type": "function"
    },
    {
      "inputs": [
        {
          "internalType": "bytes32",
          "name": "_timelockID",
          "type": "bytes32"
        }
      ],
      "name": "_cancelTx",
      "outputs": [
        {
          "internalType": "bool",
          "name": "",
          "type": "bool"
        }
      ],
      "stateMutability": "nonpayable",
      "type": "function"
    },
    {
      "inputs": [
        {
          "internalType": "bytes32",
          "name": "_timelockID",
          "type": "bytes32"
        }
      ],
      "name": "_getTimelock",
      "outputs": [
        {
          "components": [
            {
              "internalType": "bytes32",
              "name": "_id",
              "type": "bytes32"
            },
            {
              "internalType": "uint256",
              "name": "_amount",
              "type": "uint256"
            },
            {
              "internalType": "address",
              "name": "_creator",
              "type": "address"
            },
            {
              "internalType": "address",
              "name": "_recipient",
              "type": "address"
            },
            {
              "internalType": "address",
              "name": "_token",
              "type": "address"
            },
            {
              "internalType": "uint256",
              "name": "_lockedUntil",
              "type": "uint256"
            },
            {
              "internalType": "uint256",
              "name": "_fee",
              "type": "uint256"
            }
          ],
          "internalType": "struct IFactory.TimelockObject",
          "name": "",
          "type": "tuple"
        }
      ],
      "stateMutability": "view",
      "type": "function"
    },
    {
      "inputs": [
        {
          "internalType": "uint256",
          "name": "lockTime_",
          "type": "uint256"
        },
        {
          "internalType": "address",
          "name": "recipient_",
          "type": "address"
        }
      ],
      "name": "_lockEtherForLater",
      "outputs": [],
      "stateMutability": "payable",
      "type": "function"
    },
    {
      "inputs": [
        {
          "internalType": "address",
          "name": "token_",
          "type": "address"
        },
        {
          "internalType": "uint256",
          "name": "lockTime_",
          "type": "uint256"
        },
        {
          "internalType": "address",
          "name": "recipient_",
          "type": "address"
        },
        {
          "internalType": "uint256",
          "name": "amount_",
          "type": "uint256"
        }
      ],
      "name": "_lockTokenForLater",
      "outputs": [],
      "stateMutability": "payable",
      "type": "function"
    },
    {
      "inputs": [
        {
          "internalType": "bytes32",
          "name": "_timelockID",
          "type": "bytes32"
        }
      ],
      "name": "_proceedWithTx",
      "outputs": [
        {
          "internalType": "bool",
          "name": "",
          "type": "bool"
        }
      ],
      "stateMutability": "nonpayable",
      "type": "function"
    },
    {
      "inputs": [
        {
          "internalType": "address",
          "name": "feeTaker_",
          "type": "address"
        }
      ],
      "name": "_setFeeTaker",
      "outputs": [],
      "stateMutability": "nonpayable",
      "type": "function"
    },
    {
      "inputs": [
        {
          "internalType": "address",
          "name": "token",
          "type": "address"
        }
      ],
      "name": "_takeToken",
      "outputs": [],
      "stateMutability": "nonpayable",
      "type": "function"
    },
    {
      "inputs": [],
      "name": "_takeWithdrawableFees",
      "outputs": [],
      "stateMutability": "nonpayable",
      "type": "function"
    },
    {
      "inputs": [
        {
          "internalType": "bytes32",
          "name": "role",
          "type": "bytes32"
        }
      ],
      "name": "getRoleAdmin",
      "outputs": [
        {
          "internalType": "bytes32",
          "name": "",
          "type": "bytes32"
        }
      ],
      "stateMutability": "view",
      "type": "function"
    },
    {
      "inputs": [
        {
          "internalType": "bytes32",
          "name": "role",
          "type": "bytes32"
        },
        {
          "internalType": "address",
          "name": "account",
          "type": "address"
        }
      ],
      "name": "grantRole",
      "outputs": [],
      "stateMutability": "nonpayable",
      "type": "function"
    },
    {
      "inputs": [
        {
          "internalType": "bytes32",
          "name": "role",
          "type": "bytes32"
        },
        {
          "internalType": "address",
          "name": "account",
          "type": "address"
        }
      ],
      "name": "hasRole",
      "outputs": [
        {
          "internalType": "bool",
          "name": "",
          "type": "bool"
        }
      ],
      "stateMutability": "view",
      "type": "function"
    },
    {
      "inputs": [
        {
          "internalType": "bytes32",
          "name": "role",
          "type": "bytes32"
        },
        {
          "internalType": "address",
          "name": "account",
          "type": "address"
        }
      ],
      "name": "renounceRole",
      "outputs": [],
      "stateMutability": "nonpayable",
      "type": "function"
    },
    {
      "inputs": [
        {
          "internalType": "bytes32",
          "name": "role",
          "type": "bytes32"
        },
        {
          "internalType": "address",
          "name": "account",
          "type": "address"
        }
      ],
      "name": "revokeRole",
      "outputs": [],
      "stateMutability": "nonpayable",
      "type": "function"
    },
    {
      "inputs": [
        {
          "internalType": "bytes4",
          "name": "interfaceId",
          "type": "bytes4"
        }
      ],
      "name": "supportsInterface",
      "outputs": [
        {
          "internalType": "bool",
          "name": "",
          "type": "bool"
        }
      ],
      "stateMutability": "view",
      "type": "function"
    },
    {
      "stateMutability": "payable",
      "type": "receive"
    }
  ],
  "bytecode": "0x60806040523480156200001157600080fd5b50604051620039d4380380620039d483398181016040528101906200003791906200028f565b6001600081905550620000636000801b62000057620000ab60201b60201c565b620000b360201b60201c565b80600460006101000a81548173ffffffffffffffffffffffffffffffffffffffff021916908373ffffffffffffffffffffffffffffffffffffffff16021790555050620002c1565b600033905090565b620000c58282620000c960201b60201c565b5050565b620000db8282620001ba60201b60201c565b620001b657600180600084815260200190815260200160002060000160008373ffffffffffffffffffffffffffffffffffffffff1673ffffffffffffffffffffffffffffffffffffffff16815260200190815260200160002060006101000a81548160ff0219169083151502179055506200015b620000ab60201b60201c565b73ffffffffffffffffffffffffffffffffffffffff168173ffffffffffffffffffffffffffffffffffffffff16837f2f8788117e7eff1d82e926ec794901d17c78024a50270940304540a733656f0d60405160405180910390a45b5050565b60006001600084815260200190815260200160002060000160008373ffffffffffffffffffffffffffffffffffffffff1673ffffffffffffffffffffffffffffffffffffffff16815260200190815260200160002060009054906101000a900460ff16905092915050565b600080fd5b600073ffffffffffffffffffffffffffffffffffffffff82169050919050565b600062000257826200022a565b9050919050565b62000269816200024a565b81146200027557600080fd5b50565b60008151905062000289816200025e565b92915050565b600060208284031215620002a857620002a762000225565b5b6000620002b88482850162000278565b91505092915050565b61370380620002d16000396000f3fe6080604052600436106101025760003560e01c80636f8e07b811610095578063b3e94e9811610064578063b3e94e9814610355578063c5ead62214610392578063cacd4c1a146103bb578063d547741f146103f8578063ec94d6351461042157610109565b80636f8e07b81461029957806391d14854146102b0578063a217fddf146102ed578063b2bb58b91461031857610109565b80632f2ff15d116100d15780632f2ff15d146101ee57806336568abe146102175780633baad4bf146102405780635ee73fe91461025c57610109565b806301ffc9a71461010e57806317d68ed51461014b5780631df7a98f14610174578063248a9ca3146101b157610109565b3661010957005b600080fd5b34801561011a57600080fd5b506101356004803603810190610130919061258c565b61043d565b60405161014291906125d4565b60405180910390f35b34801561015757600080fd5b50610172600480360381019061016d919061264d565b6104b7565b005b34801561018057600080fd5b5061019b600480360381019061019691906126b0565b610743565b6040516101a89190612712565b60405180910390f35b3480156101bd57600080fd5b506101d860048036038101906101d39190612763565b610842565b6040516101e5919061279f565b60405180910390f35b3480156101fa57600080fd5b50610215600480360381019061021091906127ba565b610862565b005b34801561022357600080fd5b5061023e600480360381019061023991906127ba565b61088b565b005b61025a600480360381019061025591906127fa565b61090e565b005b34801561026857600080fd5b50610283600480360381019061027e9190612763565b610d21565b60405161029091906125d4565b60405180910390f35b3480156102a557600080fd5b506102ae6110df565b005b3480156102bc57600080fd5b506102d760048036038101906102d291906127ba565b6111a1565b6040516102e491906125d4565b60405180910390f35b3480156102f957600080fd5b5061030261120c565b60405161030f919061279f565b60405180910390f35b34801561032457600080fd5b5061033f600480360381019061033a9190612861565b611213565b60405161034c919061279f565b60405180910390f35b34801561036157600080fd5b5061037c60048036038101906103779190612763565b611237565b6040516103899190612949565b60405180910390f35b34801561039e57600080fd5b506103b960048036038101906103b4919061264d565b61138e565b005b3480156103c757600080fd5b506103e260048036038101906103dd9190612763565b611425565b6040516103ef91906125d4565b60405180910390f35b34801561040457600080fd5b5061041f600480360381019061041a91906127ba565b6117f0565b005b61043b60048036038101906104369190612964565b611819565b005b60007f7965db0b000000000000000000000000000000000000000000000000000000007bffffffffffffffffffffffffffffffffffffffffffffffffffffffff1916827bffffffffffffffffffffffffffffffffffffffffffffffffffffffff191614806104b057506104af82611acc565b5b9050919050565b6104cb6000801b6104c6611b36565b6111a1565b61050a576040517f08c379a000000000000000000000000000000000000000000000000000000000815260040161050190612a01565b60405180910390fd5b600360008273ffffffffffffffffffffffffffffffffffffffff1673ffffffffffffffffffffffffffffffffffffffff168152602001908152602001600020548173ffffffffffffffffffffffffffffffffffffffff166370a08231306040518263ffffffff1660e01b81526004016105839190612a30565b602060405180830381865afa1580156105a0573d6000803e3d6000fd5b505050506040513d601f19601f820116820180604052508101906105c49190612a60565b11610604576040517f08c379a00000000000000000000000000000000000000000000000000000000081526004016105fb90612aff565b60405180910390fd5b60006106d1600360008473ffffffffffffffffffffffffffffffffffffffff1673ffffffffffffffffffffffffffffffffffffffff168152602001908152602001600020548373ffffffffffffffffffffffffffffffffffffffff166370a08231306040518263ffffffff1660e01b81526004016106829190612a30565b602060405180830381865afa15801561069f573d6000803e3d6000fd5b505050506040513d601f19601f820116820180604052508101906106c39190612a60565b611b3e90919063ffffffff16565b905061070082600460009054906101000a900473ffffffffffffffffffffffffffffffffffffffff1683611b54565b61073f576040517f08c379a000000000000000000000000000000000000000000000000000000000815260040161073690612b6b565b60405180910390fd5b5050565b600061012c61075b4286611b3e90919063ffffffff16565b101561079c576040517f08c379a000000000000000000000000000000000000000000000000000000000815260040161079390612c23565b60405180910390fd5b6108396107bc612710670de0b6b3a7640000611cba90919063ffffffff16565b61082b6108266107f3670de0b6b3a76400008773ffffffffffffffffffffffffffffffffffffffff16611b3e90919063ffffffff16565b610818610809428b611cba90919063ffffffff16565b89611cd090919063ffffffff16565b611cba90919063ffffffff16565b611ce6565b611d6090919063ffffffff16565b90509392505050565b600060016000838152602001908152602001600020600101549050919050565b61086b82610842565b61087c81610877611b36565b611d76565b6108868383611e13565b505050565b610893611b36565b73ffffffffffffffffffffffffffffffffffffffff168173ffffffffffffffffffffffffffffffffffffffff1614610900576040517f08c379a00000000000000000000000000000000000000000000000000000000081526004016108f790612cb5565b60405180910390fd5b61090a8282611ef3565b5050565b61012c6109244285611b3e90919063ffffffff16565b1015610965576040517f08c379a000000000000000000000000000000000000000000000000000000000815260040161095c90612c23565b60405180910390fd5b808473ffffffffffffffffffffffffffffffffffffffff1663dd62ed3e61098a611b36565b306040518363ffffffff1660e01b81526004016109a8929190612cd5565b602060405180830381865afa1580156109c5573d6000803e3d6000fd5b505050506040513d601f19601f820116820180604052508101906109e99190612a60565b1015610a2a576040517f08c379a0000000000000000000000000000000000000000000000000000000008152600401610a2190612d4a565b60405180910390fd5b6000610a3e8483610a39611b36565b610743565b905080341015610a83576040517f08c379a0000000000000000000000000000000000000000000000000000000008152600401610a7a90612db6565b60405180910390fd5b6000848385610a90611b36565b8542604051602001610aa796959493929190612e3f565b604051602081830303815290604052805190602001209050610ad286610acb611b36565b3086611fd5565b5082600360008873ffffffffffffffffffffffffffffffffffffffff1673ffffffffffffffffffffffffffffffffffffffff168152602001908152602001600020819055506040518060e00160405280828152602001848152602001610b36611b36565b73ffffffffffffffffffffffffffffffffffffffff1681526020018573ffffffffffffffffffffffffffffffffffffffff1681526020018773ffffffffffffffffffffffffffffffffffffffff1681526020018681526020018381525060026000838152602001908152602001600020600082015181600001556020820151816001015560408201518160020160006101000a81548173ffffffffffffffffffffffffffffffffffffffff021916908373ffffffffffffffffffffffffffffffffffffffff16021790555060608201518160030160006101000a81548173ffffffffffffffffffffffffffffffffffffffff021916908373ffffffffffffffffffffffffffffffffffffffff16021790555060808201518160040160006101000a81548173ffffffffffffffffffffffffffffffffffffffff021916908373ffffffffffffffffffffffffffffffffffffffff16021790555060a0820151816005015560c0820151816006015590505060068190806001815401808255809150506001900390600052602060002001600090919091909150557fa24e95845a1f91c9ba3be5cc98b48d12d61cd22bdc8ae2d3dfc3aedd24b506328184610cfa611b36565b878a8a88604051610d119796959493929190612eaf565b60405180910390a1505050505050565b6000806002600084815260200190815260200160002090508060050154421015610d80576040517f08c379a0000000000000000000000000000000000000000000000000000000008152600401610d7790612f90565b60405180910390fd5b610d88611b36565b73ffffffffffffffffffffffffffffffffffffffff168160020160009054906101000a900473ffffffffffffffffffffffffffffffffffffffff1673ffffffffffffffffffffffffffffffffffffffff16148015610ded57506000801b816000015414155b610e2c576040517f08c379a0000000000000000000000000000000000000000000000000000000008152600401610e2390612ffc565b60405180910390fd5b600073ffffffffffffffffffffffffffffffffffffffff168160040160009054906101000a900473ffffffffffffffffffffffffffffffffffffffff1673ffffffffffffffffffffffffffffffffffffffff1603610ebc57610eb68160020160009054906101000a900473ffffffffffffffffffffffffffffffffffffffff168260010154612121565b50610ff6565b610f138160040160009054906101000a900473ffffffffffffffffffffffffffffffffffffffff168260020160009054906101000a900473ffffffffffffffffffffffffffffffffffffffff168360010154611b54565b50610f8e8160010154600360008460040160009054906101000a900473ffffffffffffffffffffffffffffffffffffffff1673ffffffffffffffffffffffffffffffffffffffff1673ffffffffffffffffffffffffffffffffffffffff16815260200190815260200160002054611b3e90919063ffffffff16565b600360008360040160009054906101000a900473ffffffffffffffffffffffffffffffffffffffff1673ffffffffffffffffffffffffffffffffffffffff1673ffffffffffffffffffffffffffffffffffffffff168152602001908152602001600020819055505b60008160020160006101000a81548173ffffffffffffffffffffffffffffffffffffffff021916908373ffffffffffffffffffffffffffffffffffffffff1602179055506000801b81600001819055506000816001018190555060008160030160006101000a81548173ffffffffffffffffffffffffffffffffffffffff021916908373ffffffffffffffffffffffffffffffffffffffff160217905550600081600601819055507fa32a56a4fb497457a2ff2c7acd600aac5dd868b3c2fd537c030e2bbfaecd47e1836040516110cd919061279f565b60405180910390a16001915050919050565b6110f36000801b6110ee611b36565b6111a1565b611132576040517f08c379a000000000000000000000000000000000000000000000000000000000815260040161112990612a01565b60405180910390fd5b611160600460009054906101000a900473ffffffffffffffffffffffffffffffffffffffff16600554612121565b61119f576040517f08c379a000000000000000000000000000000000000000000000000000000000815260040161119690613068565b60405180910390fd5b565b60006001600084815260200190815260200160002060000160008373ffffffffffffffffffffffffffffffffffffffff1673ffffffffffffffffffffffffffffffffffffffff16815260200190815260200160002060009054906101000a900460ff16905092915050565b6000801b81565b6006818154811061122357600080fd5b906000526020600020016000915090505481565b61123f6124ad565b600260008381526020019081526020016000206040518060e001604052908160008201548152602001600182015481526020016002820160009054906101000a900473ffffffffffffffffffffffffffffffffffffffff1673ffffffffffffffffffffffffffffffffffffffff1673ffffffffffffffffffffffffffffffffffffffff1681526020016003820160009054906101000a900473ffffffffffffffffffffffffffffffffffffffff1673ffffffffffffffffffffffffffffffffffffffff1673ffffffffffffffffffffffffffffffffffffffff1681526020016004820160009054906101000a900473ffffffffffffffffffffffffffffffffffffffff1673ffffffffffffffffffffffffffffffffffffffff1673ffffffffffffffffffffffffffffffffffffffff168152602001600582015481526020016006820154815250509050919050565b6113a26000801b61139d611b36565b6111a1565b6113e1576040517f08c379a00000000000000000000000000000000000000000000000000000000081526004016113d890612a01565b60405180910390fd5b80600460006101000a81548173ffffffffffffffffffffffffffffffffffffffff021916908373ffffffffffffffffffffffffffffffffffffffff16021790555050565b600080600260008481526020019081526020016000209050611445611b36565b73ffffffffffffffffffffffffffffffffffffffff168160020160009054906101000a900473ffffffffffffffffffffffffffffffffffffffff1673ffffffffffffffffffffffffffffffffffffffff161480156114aa57506000801b816000015414155b6114e9576040517f08c379a00000000000000000000000000000000000000000000000000000000081526004016114e090612ffc565b60405180910390fd5b600073ffffffffffffffffffffffffffffffffffffffff168160040160009054906101000a900473ffffffffffffffffffffffffffffffffffffffff1673ffffffffffffffffffffffffffffffffffffffff16036115ae576115898160030160009054906101000a900473ffffffffffffffffffffffffffffffffffffffff1661158483600601548460010154611b3e90919063ffffffff16565b612121565b506115a38160060154600554611d6090919063ffffffff16565b600581905550611707565b6116058160040160009054906101000a900473ffffffffffffffffffffffffffffffffffffffff168260030160009054906101000a900473ffffffffffffffffffffffffffffffffffffffff168360010154611b54565b506116808160010154600360008460040160009054906101000a900473ffffffffffffffffffffffffffffffffffffffff1673ffffffffffffffffffffffffffffffffffffffff1673ffffffffffffffffffffffffffffffffffffffff16815260200190815260200160002054611b3e90919063ffffffff16565b600360008360040160009054906101000a900473ffffffffffffffffffffffffffffffffffffffff1673ffffffffffffffffffffffffffffffffffffffff1673ffffffffffffffffffffffffffffffffffffffff168152602001908152602001600020819055506117008160060154600554611d6090919063ffffffff16565b6005819055505b60008160020160006101000a81548173ffffffffffffffffffffffffffffffffffffffff021916908373ffffffffffffffffffffffffffffffffffffffff1602179055506000801b81600001819055506000816001018190555060008160030160006101000a81548173ffffffffffffffffffffffffffffffffffffffff021916908373ffffffffffffffffffffffffffffffffffffffff160217905550600081600601819055507fbc69a882ed965208c3e3d7ad3ab387a98f8f122da25ec24ac24049bd96c9b23a836040516117de919061279f565b60405180910390a16001915050919050565b6117f982610842565b61180a81611805611b36565b611d76565b6118148383611ef3565b505050565b61012c61182f4284611b3e90919063ffffffff16565b1015611870576040517f08c379a000000000000000000000000000000000000000000000000000000000815260040161186790612c23565b60405180910390fd5b6000611884833461187f611b36565b610743565b90506000833484611893611b36565b85426040516020016118aa96959493929190612e3f565b6040516020818303038152906040528051906020012090506040518060e001604052808281526020013481526020016118e1611b36565b73ffffffffffffffffffffffffffffffffffffffff1681526020018473ffffffffffffffffffffffffffffffffffffffff168152602001600073ffffffffffffffffffffffffffffffffffffffff1681526020018581526020018381525060026000838152602001908152602001600020600082015181600001556020820151816001015560408201518160020160006101000a81548173ffffffffffffffffffffffffffffffffffffffff021916908373ffffffffffffffffffffffffffffffffffffffff16021790555060608201518160030160006101000a81548173ffffffffffffffffffffffffffffffffffffffff021916908373ffffffffffffffffffffffffffffffffffffffff16021790555060808201518160040160006101000a81548173ffffffffffffffffffffffffffffffffffffffff021916908373ffffffffffffffffffffffffffffffffffffffff16021790555060a0820151816005015560c0820151816006015590505060068190806001815401808255809150506001900390600052602060002001600090919091909150557fa24e95845a1f91c9ba3be5cc98b48d12d61cd22bdc8ae2d3dfc3aedd24b506328134611aa6611b36565b8660008988604051611abe9796959493929190612eaf565b60405180910390a150505050565b60007f01ffc9a7000000000000000000000000000000000000000000000000000000007bffffffffffffffffffffffffffffffffffffffffffffffffffffffff1916827bffffffffffffffffffffffffffffffffffffffffffffffffffffffff1916149050919050565b600033905090565b60008183611b4c91906130b7565b905092915050565b6000808473ffffffffffffffffffffffffffffffffffffffff166040518060400160405280601981526020017f7472616e7366657228616464726573732c75696e743235362900000000000000815250805190602001208585604051602401611bbe9291906130eb565b604051602081830303815290604052907bffffffffffffffffffffffffffffffffffffffffffffffffffffffff19166020820180517bffffffffffffffffffffffffffffffffffffffffffffffffffffffff8381831617835250505050604051611c28919061318e565b6000604051808303816000865af19150503d8060008114611c65576040519150601f19603f3d011682016040523d82523d6000602084013e611c6a565b606091505b5050905080611cae576040517f08c379a0000000000000000000000000000000000000000000000000000000008152600401611ca5906131f1565b60405180910390fd5b60019150509392505050565b60008183611cc89190613240565b905092915050565b60008183611cde9190613271565b905092915050565b60006003821115611d4d5781905060006001600284611d059190613240565b611d0f91906132cb565b90505b81811015611d47578091506002818285611d2c9190613240565b611d3691906132cb565b611d409190613240565b9050611d12565b50611d5b565b60008214611d5a57600190505b5b919050565b60008183611d6e91906132cb565b905092915050565b611d8082826111a1565b611e0f57611da58173ffffffffffffffffffffffffffffffffffffffff166014612271565b611db38360001c6020612271565b604051602001611dc4929190613400565b6040516020818303038152906040526040517f08c379a0000000000000000000000000000000000000000000000000000000008152600401611e069190613484565b60405180910390fd5b5050565b611e1d82826111a1565b611eef57600180600084815260200190815260200160002060000160008373ffffffffffffffffffffffffffffffffffffffff1673ffffffffffffffffffffffffffffffffffffffff16815260200190815260200160002060006101000a81548160ff021916908315150217905550611e94611b36565b73ffffffffffffffffffffffffffffffffffffffff168173ffffffffffffffffffffffffffffffffffffffff16837f2f8788117e7eff1d82e926ec794901d17c78024a50270940304540a733656f0d60405160405180910390a45b5050565b611efd82826111a1565b15611fd15760006001600084815260200190815260200160002060000160008373ffffffffffffffffffffffffffffffffffffffff1673ffffffffffffffffffffffffffffffffffffffff16815260200190815260200160002060006101000a81548160ff021916908315150217905550611f76611b36565b73ffffffffffffffffffffffffffffffffffffffff168173ffffffffffffffffffffffffffffffffffffffff16837ff6391f5c32d9c69d2a47ea670b442974b53935d1edc7fd64eb21e047a839171b60405160405180910390a45b5050565b6000808573ffffffffffffffffffffffffffffffffffffffff166040518060600160405280602581526020016136a96025913980519060200120868686604051602401612024939291906134a6565b604051602081830303815290604052907bffffffffffffffffffffffffffffffffffffffffffffffffffffffff19166020820180517bffffffffffffffffffffffffffffffffffffffffffffffffffffffff838183161783525050505060405161208e919061318e565b6000604051808303816000865af19150503d80600081146120cb576040519150601f19603f3d011682016040523d82523d6000602084013e6120d0565b606091505b5050905080612114576040517f08c379a000000000000000000000000000000000000000000000000000000000815260040161210b906131f1565b60405180910390fd5b6001915050949350505050565b6000804790508281101561216a576040517f08c379a000000000000000000000000000000000000000000000000000000000815260040161216190613529565b60405180910390fd5b60008473ffffffffffffffffffffffffffffffffffffffff1684600067ffffffffffffffff81111561219f5761219e613549565b5b6040519080825280601f01601f1916602001820160405280156121d15781602001600182028036833780820191505090505b506040516121df919061318e565b60006040518083038185875af1925050503d806000811461221c576040519150601f19603f3d011682016040523d82523d6000602084013e612221565b606091505b5050905080612265576040517f08c379a000000000000000000000000000000000000000000000000000000000815260040161225c906135c4565b60405180910390fd5b60019250505092915050565b6060600060028360026122849190613271565b61228e91906132cb565b67ffffffffffffffff8111156122a7576122a6613549565b5b6040519080825280601f01601f1916602001820160405280156122d95781602001600182028036833780820191505090505b5090507f300000000000000000000000000000000000000000000000000000000000000081600081518110612311576123106135e4565b5b60200101907effffffffffffffffffffffffffffffffffffffffffffffffffffffffffffff1916908160001a9053507f780000000000000000000000000000000000000000000000000000000000000081600181518110612375576123746135e4565b5b60200101907effffffffffffffffffffffffffffffffffffffffffffffffffffffffffffff1916908160001a905350600060018460026123b59190613271565b6123bf91906132cb565b90505b600181111561245f577f3031323334353637383961626364656600000000000000000000000000000000600f861660108110612401576124006135e4565b5b1a60f81b828281518110612418576124176135e4565b5b60200101907effffffffffffffffffffffffffffffffffffffffffffffffffffffffffffff1916908160001a905350600485901c94508061245890613613565b90506123c2565b50600084146124a3576040517f08c379a000000000000000000000000000000000000000000000000000000000815260040161249a90613688565b60405180910390fd5b8091505092915050565b6040518060e001604052806000801916815260200160008152602001600073ffffffffffffffffffffffffffffffffffffffff168152602001600073ffffffffffffffffffffffffffffffffffffffff168152602001600073ffffffffffffffffffffffffffffffffffffffff16815260200160008152602001600081525090565b600080fd5b60007fffffffff0000000000000000000000000000000000000000000000000000000082169050919050565b61256981612534565b811461257457600080fd5b50565b60008135905061258681612560565b92915050565b6000602082840312156125a2576125a161252f565b5b60006125b084828501612577565b91505092915050565b60008115159050919050565b6125ce816125b9565b82525050565b60006020820190506125e960008301846125c5565b92915050565b600073ffffffffffffffffffffffffffffffffffffffff82169050919050565b600061261a826125ef565b9050919050565b61262a8161260f565b811461263557600080fd5b50565b60008135905061264781612621565b92915050565b6000602082840312156126635761266261252f565b5b600061267184828501612638565b91505092915050565b6000819050919050565b61268d8161267a565b811461269857600080fd5b50565b6000813590506126aa81612684565b92915050565b6000806000606084860312156126c9576126c861252f565b5b60006126d78682870161269b565b93505060206126e88682870161269b565b92505060406126f986828701612638565b9150509250925092565b61270c8161267a565b82525050565b60006020820190506127276000830184612703565b92915050565b6000819050919050565b6127408161272d565b811461274b57600080fd5b50565b60008135905061275d81612737565b92915050565b6000602082840312156127795761277861252f565b5b60006127878482850161274e565b91505092915050565b6127998161272d565b82525050565b60006020820190506127b46000830184612790565b92915050565b600080604083850312156127d1576127d061252f565b5b60006127df8582860161274e565b92505060206127f085828601612638565b9150509250929050565b600080600080608085870312156128145761281361252f565b5b600061282287828801612638565b94505060206128338782880161269b565b935050604061284487828801612638565b92505060606128558782880161269b565b91505092959194509250565b6000602082840312156128775761287661252f565b5b60006128858482850161269b565b91505092915050565b6128978161272d565b82525050565b6128a68161267a565b82525050565b6128b58161260f565b82525050565b60e0820160008201516128d1600085018261288e565b5060208201516128e4602085018261289d565b5060408201516128f760408501826128ac565b50606082015161290a60608501826128ac565b50608082015161291d60808501826128ac565b5060a082015161293060a085018261289d565b5060c082015161294360c085018261289d565b50505050565b600060e08201905061295e60008301846128bb565b92915050565b6000806040838503121561297b5761297a61252f565b5b60006129898582860161269b565b925050602061299a85828601612638565b9150509250929050565b600082825260208201905092915050565b7f6f6e6c792061646d696e00000000000000000000000000000000000000000000600082015250565b60006129eb600a836129a4565b91506129f6826129b5565b602082019050919050565b60006020820190508181036000830152612a1a816129de565b9050919050565b612a2a8161260f565b82525050565b6000602082019050612a456000830184612a21565b92915050565b600081519050612a5a81612684565b92915050565b600060208284031215612a7657612a7561252f565b5b6000612a8484828501612a4b565b91505092915050565b7f62616c616e6365206d7573742062652067726561746572207468616e206c6f6360008201527f6b656420746f6b656e2062616c616e6365730000000000000000000000000000602082015250565b6000612ae96032836129a4565b9150612af482612a8d565b604082019050919050565b60006020820190508181036000830152612b1881612adc565b9050919050565b7f636f756c64206e6f74207472616e7366657220746f6b656e7300000000000000600082015250565b6000612b556019836129a4565b9150612b6082612b1f565b602082019050919050565b60006020820190508181036000830152612b8481612b48565b9050919050565b7f646966666572656e6365206265747765656e206c6f636b2074696d6520616e6460008201527f2063757272656e7420626c6f636b2074696d652073686f756c6420626520617460208201527f206c656173742035206d696e7574657300000000000000000000000000000000604082015250565b6000612c0d6050836129a4565b9150612c1882612b8b565b606082019050919050565b60006020820190508181036000830152612c3c81612c00565b9050919050565b7f416363657373436f6e74726f6c3a2063616e206f6e6c792072656e6f756e636560008201527f20726f6c657320666f722073656c660000000000000000000000000000000000602082015250565b6000612c9f602f836129a4565b9150612caa82612c43565b604082019050919050565b60006020820190508181036000830152612cce81612c92565b9050919050565b6000604082019050612cea6000830185612a21565b612cf76020830184612a21565b9392505050565b7f616c6c6f77616e636520746f6f206c6f77000000000000000000000000000000600082015250565b6000612d346011836129a4565b9150612d3f82612cfe565b602082019050919050565b60006020820190508181036000830152612d6381612d27565b9050919050565b7f6d75737420706179206578616374206665650000000000000000000000000000600082015250565b6000612da06012836129a4565b9150612dab82612d6a565b602082019050919050565b60006020820190508181036000830152612dcf81612d93565b9050919050565b6000819050919050565b612df1612dec8261267a565b612dd6565b82525050565b60008160601b9050919050565b6000612e0f82612df7565b9050919050565b6000612e2182612e04565b9050919050565b612e39612e348261260f565b612e16565b82525050565b6000612e4b8289612de0565b602082019150612e5b8288612de0565b602082019150612e6b8287612e28565b601482019150612e7b8286612e28565b601482019150612e8b8285612de0565b602082019150612e9b8284612de0565b602082019150819050979650505050505050565b600060e082019050612ec4600083018a612790565b612ed16020830189612703565b612ede6040830188612a21565b612eeb6060830187612a21565b612ef86080830186612a21565b612f0560a0830185612703565b612f1260c0830184612703565b98975050505050505050565b7f63616e6e6f742063616e63656c206265666f7265206c6f636b2065787069726160008201527f74696f6e00000000000000000000000000000000000000000000000000000000602082015250565b6000612f7a6024836129a4565b9150612f8582612f1e565b604082019050919050565b60006020820190508181036000830152612fa981612f6d565b9050919050565b7f696e76616c696420726571756573740000000000000000000000000000000000600082015250565b6000612fe6600f836129a4565b9150612ff182612fb0565b602082019050919050565b6000602082019050818103600083015261301581612fd9565b9050919050565b7f636f756c64206e6f742074616b65206665657300000000000000000000000000600082015250565b60006130526013836129a4565b915061305d8261301c565b602082019050919050565b6000602082019050818103600083015261308181613045565b9050919050565b7f4e487b7100000000000000000000000000000000000000000000000000000000600052601160045260246000fd5b60006130c28261267a565b91506130cd8361267a565b9250828210156130e0576130df613088565b5b828203905092915050565b60006040820190506131006000830185612a21565b61310d6020830184612703565b9392505050565b600081519050919050565b600081905092915050565b60005b8381101561314857808201518184015260208101905061312d565b83811115613157576000848401525b50505050565b600061316882613114565b613172818561311f565b935061318281856020860161312a565b80840191505092915050565b600061319a828461315d565b915081905092915050565b7f636f756c64206e6f74207472616e7366657220746f6b656e0000000000000000600082015250565b60006131db6018836129a4565b91506131e6826131a5565b602082019050919050565b6000602082019050818103600083015261320a816131ce565b9050919050565b7f4e487b7100000000000000000000000000000000000000000000000000000000600052601260045260246000fd5b600061324b8261267a565b91506132568361267a565b92508261326657613265613211565b5b828204905092915050565b600061327c8261267a565b91506132878361267a565b9250817fffffffffffffffffffffffffffffffffffffffffffffffffffffffffffffffff04831182151516156132c0576132bf613088565b5b828202905092915050565b60006132d68261267a565b91506132e18361267a565b9250827fffffffffffffffffffffffffffffffffffffffffffffffffffffffffffffffff0382111561331657613315613088565b5b828201905092915050565b600081905092915050565b7f416363657373436f6e74726f6c3a206163636f756e7420000000000000000000600082015250565b6000613362601783613321565b915061336d8261332c565b601782019050919050565b600081519050919050565b600061338e82613378565b6133988185613321565b93506133a881856020860161312a565b80840191505092915050565b7f206973206d697373696e6720726f6c6520000000000000000000000000000000600082015250565b60006133ea601183613321565b91506133f5826133b4565b601182019050919050565b600061340b82613355565b91506134178285613383565b9150613422826133dd565b915061342e8284613383565b91508190509392505050565b6000601f19601f8301169050919050565b600061345682613378565b61346081856129a4565b935061347081856020860161312a565b6134798161343a565b840191505092915050565b6000602082019050818103600083015261349e818461344b565b905092915050565b60006060820190506134bb6000830186612a21565b6134c86020830185612a21565b6134d56040830184612703565b949350505050565b7f62616c616e636520746f6f206c6f770000000000000000000000000000000000600082015250565b6000613513600f836129a4565b915061351e826134dd565b602082019050919050565b6000602082019050818103600083015261354281613506565b9050919050565b7f4e487b7100000000000000000000000000000000000000000000000000000000600052604160045260246000fd5b7f636f756c64206e6f74207472616e736665722065746865720000000000000000600082015250565b60006135ae6018836129a4565b91506135b982613578565b602082019050919050565b600060208201905081810360008301526135dd816135a1565b9050919050565b7f4e487b7100000000000000000000000000000000000000000000000000000000600052603260045260246000fd5b600061361e8261267a565b91506000820361363157613630613088565b5b600182039050919050565b7f537472696e67733a20686578206c656e67746820696e73756666696369656e74600082015250565b60006136726020836129a4565b915061367d8261363c565b602082019050919050565b600060208201905081810360008301526136a181613665565b905091905056fe7472616e7366657246726f6d28616464726573732c616464726573732c75696e7432353629a2646970667358221220dd4ba9a01145090ddcd6924c84a9e3690491df31ff1048d276d1dd648a50cd1664736f6c634300080d0033",
  "linkReferences": {},
  "deployedLinkReferences": {}
}