{
  "_format": "hh-sol-artifact-1",
  "contractName": "Factory",
  "sourceName": "contracts/Factory.sol",
  "abi": [
    {
      "inputs": [
        {
          "internalType": "address",
          "name": "feeTaker_",
          "type": "address"
        }
      ],
      "stateMutability": "nonpayable",
      "type": "constructor"
    },
    {
      "anonymous": false,
      "inputs": [
        {
          "indexed": true,
          "internalType": "bytes32",
          "name": "role",
          "type": "bytes32"
        },
        {
          "indexed": true,
          "internalType": "bytes32",
          "name": "previousAdminRole",
          "type": "bytes32"
        },
        {
          "indexed": true,
          "internalType": "bytes32",
          "name": "newAdminRole",
          "type": "bytes32"
        }
      ],
      "name": "RoleAdminChanged",
      "type": "event"
    },
    {
      "anonymous": false,
      "inputs": [
        {
          "indexed": true,
          "internalType": "bytes32",
          "name": "role",
          "type": "bytes32"
        },
        {
          "indexed": true,
          "internalType": "address",
          "name": "account",
          "type": "address"
        },
        {
          "indexed": true,
          "internalType": "address",
          "name": "sender",
          "type": "address"
        }
      ],
      "name": "RoleGranted",
      "type": "event"
    },
    {
      "anonymous": false,
      "inputs": [
        {
          "indexed": true,
          "internalType": "bytes32",
          "name": "role",
          "type": "bytes32"
        },
        {
          "indexed": true,
          "internalType": "address",
          "name": "account",
          "type": "address"
        },
        {
          "indexed": true,
          "internalType": "address",
          "name": "sender",
          "type": "address"
        }
      ],
      "name": "RoleRevoked",
      "type": "event"
    },
    {
      "anonymous": false,
      "inputs": [
        {
          "indexed": false,
          "internalType": "bytes32",
          "name": "_id",
          "type": "bytes32"
        }
      ],
      "name": "TimelockCancelled",
      "type": "event"
    },
    {
      "anonymous": false,
      "inputs": [
        {
          "indexed": false,
          "internalType": "bytes32",
          "name": "_id",
          "type": "bytes32"
        },
        {
          "indexed": false,
          "internalType": "uint256",
          "name": "_amount",
          "type": "uint256"
        },
        {
          "indexed": false,
          "internalType": "address",
          "name": "_creator",
          "type": "address"
        },
        {
          "indexed": false,
          "internalType": "address",
          "name": "_recipient",
          "type": "address"
        },
        {
          "indexed": false,
          "internalType": "address",
          "name": "_token",
          "type": "address"
        },
        {
          "indexed": false,
          "internalType": "uint256",
          "name": "_lockedUntil",
          "type": "uint256"
        },
        {
          "indexed": false,
          "internalType": "uint256",
          "name": "_fee",
          "type": "uint256"
        }
      ],
      "name": "TimelockObjectCreated",
      "type": "event"
    },
    {
      "anonymous": false,
      "inputs": [
        {
          "indexed": false,
          "internalType": "bytes32",
          "name": "_id",
          "type": "bytes32"
        }
      ],
      "name": "TimelockProcessed",
      "type": "event"
    },
    {
      "inputs": [],
      "name": "DEFAULT_ADMIN_ROLE",
      "outputs": [
        {
          "internalType": "bytes32",
          "name": "",
          "type": "bytes32"
        }
      ],
      "stateMutability": "view",
      "type": "function"
    },
    {
      "inputs": [
        {
          "internalType": "uint256",
          "name": "",
          "type": "uint256"
        }
      ],
      "name": "_allTimelocks",
      "outputs": [
        {
          "internalType": "bytes32",
          "name": "",
          "type": "bytes32"
        }
      ],
      "stateMutability": "view",
      "type": "function"
    },
    {
      "inputs": [
        {
          "internalType": "uint256",
          "name": "lockTime_",
          "type": "uint256"
        },
        {
          "internalType": "uint256",
          "name": "amount_",
          "type": "uint256"
        },
        {
          "internalType": "address",
          "name": "_creator",
          "type": "address"
        }
      ],
      "name": "_calculateFee",
      "outputs": [
        {
          "internalType": "uint256",
          "name": "",
          "type": "uint256"
        }
      ],
      "stateMutability": "view",
      "type": "function"
    },
    {
      "inputs": [
        {
          "internalType": "bytes32",
          "name": "_timelockID",
          "type": "bytes32"
        }
      ],
      "name": "_cancelTx",
      "outputs": [
        {
          "internalType": "bool",
          "name": "",
          "type": "bool"
        }
      ],
      "stateMutability": "nonpayable",
      "type": "function"
    },
    {
      "inputs": [
        {
          "internalType": "uint256",
          "name": "lockTime_",
          "type": "uint256"
        },
        {
          "internalType": "address",
          "name": "recipient_",
          "type": "address"
        }
      ],
      "name": "_lockEtherForLater",
      "outputs": [],
      "stateMutability": "payable",
      "type": "function"
    },
    {
      "inputs": [
        {
          "internalType": "address",
          "name": "token_",
          "type": "address"
        },
        {
          "internalType": "uint256",
          "name": "lockTime_",
          "type": "uint256"
        },
        {
          "internalType": "address",
          "name": "recipient_",
          "type": "address"
        },
        {
          "internalType": "uint256",
          "name": "amount_",
          "type": "uint256"
        }
      ],
      "name": "_lockTokenForLater",
      "outputs": [],
      "stateMutability": "payable",
      "type": "function"
    },
    {
      "inputs": [
        {
          "internalType": "bytes32",
          "name": "_timelockID",
          "type": "bytes32"
        }
      ],
      "name": "_proceedWithTx",
      "outputs": [
        {
          "internalType": "bool",
          "name": "",
          "type": "bool"
        }
      ],
      "stateMutability": "nonpayable",
      "type": "function"
    },
    {
      "inputs": [
        {
          "internalType": "address",
          "name": "feeTaker_",
          "type": "address"
        }
      ],
      "name": "_setFeeTaker",
      "outputs": [],
      "stateMutability": "nonpayable",
      "type": "function"
    },
    {
      "inputs": [
        {
          "internalType": "address",
          "name": "token",
          "type": "address"
        }
      ],
      "name": "_takeToken",
      "outputs": [],
      "stateMutability": "nonpayable",
      "type": "function"
    },
    {
      "inputs": [],
      "name": "_takeWithdrawableFees",
      "outputs": [],
      "stateMutability": "nonpayable",
      "type": "function"
    },
    {
      "inputs": [
        {
          "internalType": "bytes32",
          "name": "role",
          "type": "bytes32"
        }
      ],
      "name": "getRoleAdmin",
      "outputs": [
        {
          "internalType": "bytes32",
          "name": "",
          "type": "bytes32"
        }
      ],
      "stateMutability": "view",
      "type": "function"
    },
    {
      "inputs": [
        {
          "internalType": "bytes32",
          "name": "role",
          "type": "bytes32"
        },
        {
          "internalType": "address",
          "name": "account",
          "type": "address"
        }
      ],
      "name": "grantRole",
      "outputs": [],
      "stateMutability": "nonpayable",
      "type": "function"
    },
    {
      "inputs": [
        {
          "internalType": "bytes32",
          "name": "role",
          "type": "bytes32"
        },
        {
          "internalType": "address",
          "name": "account",
          "type": "address"
        }
      ],
      "name": "hasRole",
      "outputs": [
        {
          "internalType": "bool",
          "name": "",
          "type": "bool"
        }
      ],
      "stateMutability": "view",
      "type": "function"
    },
    {
      "inputs": [
        {
          "internalType": "bytes32",
          "name": "role",
          "type": "bytes32"
        },
        {
          "internalType": "address",
          "name": "account",
          "type": "address"
        }
      ],
      "name": "renounceRole",
      "outputs": [],
      "stateMutability": "nonpayable",
      "type": "function"
    },
    {
      "inputs": [
        {
          "internalType": "bytes32",
          "name": "role",
          "type": "bytes32"
        },
        {
          "internalType": "address",
          "name": "account",
          "type": "address"
        }
      ],
      "name": "revokeRole",
      "outputs": [],
      "stateMutability": "nonpayable",
      "type": "function"
    },
    {
      "inputs": [
        {
          "internalType": "bytes4",
          "name": "interfaceId",
          "type": "bytes4"
        }
      ],
      "name": "supportsInterface",
      "outputs": [
        {
          "internalType": "bool",
          "name": "",
          "type": "bool"
        }
      ],
      "stateMutability": "view",
      "type": "function"
    },
    {
      "stateMutability": "payable",
      "type": "receive"
    }
  ],
  "bytecode": "0x60806040523480156200001157600080fd5b50604051620036dd380380620036dd83398181016040528101906200003791906200028f565b6001600081905550620000636000801b62000057620000ab60201b60201c565b620000b360201b60201c565b80600460006101000a81548173ffffffffffffffffffffffffffffffffffffffff021916908373ffffffffffffffffffffffffffffffffffffffff16021790555050620002c1565b600033905090565b620000c58282620000c960201b60201c565b5050565b620000db8282620001ba60201b60201c565b620001b657600180600084815260200190815260200160002060000160008373ffffffffffffffffffffffffffffffffffffffff1673ffffffffffffffffffffffffffffffffffffffff16815260200190815260200160002060006101000a81548160ff0219169083151502179055506200015b620000ab60201b60201c565b73ffffffffffffffffffffffffffffffffffffffff168173ffffffffffffffffffffffffffffffffffffffff16837f2f8788117e7eff1d82e926ec794901d17c78024a50270940304540a733656f0d60405160405180910390a45b5050565b60006001600084815260200190815260200160002060000160008373ffffffffffffffffffffffffffffffffffffffff1673ffffffffffffffffffffffffffffffffffffffff16815260200190815260200160002060009054906101000a900460ff16905092915050565b600080fd5b600073ffffffffffffffffffffffffffffffffffffffff82169050919050565b600062000257826200022a565b9050919050565b62000269816200024a565b81146200027557600080fd5b50565b60008151905062000289816200025e565b92915050565b600060208284031215620002a857620002a762000225565b5b6000620002b88482850162000278565b91505092915050565b61340c80620002d16000396000f3fe6080604052600436106100f75760003560e01c80636f8e07b81161008a578063c5ead62211610059578063c5ead6221461034a578063cacd4c1a14610373578063d547741f146103b0578063ec94d635146103d9576100fe565b80636f8e07b81461028e57806391d14854146102a5578063a217fddf146102e2578063b2bb58b91461030d576100fe565b80632f2ff15d116100c65780632f2ff15d146101e357806336568abe1461020c5780633baad4bf146102355780635ee73fe914610251576100fe565b806301ffc9a71461010357806317d68ed5146101405780631df7a98f14610169578063248a9ca3146101a6576100fe565b366100fe57005b600080fd5b34801561010f57600080fd5b5061012a6004803603810190610125919061236b565b6103f5565b60405161013791906123b3565b60405180910390f35b34801561014c57600080fd5b506101676004803603810190610162919061242c565b61046f565b005b34801561017557600080fd5b50610190600480360381019061018b919061248f565b6106fb565b60405161019d91906124f1565b60405180910390f35b3480156101b257600080fd5b506101cd60048036038101906101c89190612542565b6107fa565b6040516101da919061257e565b60405180910390f35b3480156101ef57600080fd5b5061020a60048036038101906102059190612599565b61081a565b005b34801561021857600080fd5b50610233600480360381019061022e9190612599565b610843565b005b61024f600480360381019061024a91906125d9565b6108c6565b005b34801561025d57600080fd5b5061027860048036038101906102739190612542565b610cd9565b60405161028591906123b3565b60405180910390f35b34801561029a57600080fd5b506102a3611097565b005b3480156102b157600080fd5b506102cc60048036038101906102c79190612599565b611159565b6040516102d991906123b3565b60405180910390f35b3480156102ee57600080fd5b506102f76111c4565b604051610304919061257e565b60405180910390f35b34801561031957600080fd5b50610334600480360381019061032f9190612640565b6111cb565b604051610341919061257e565b60405180910390f35b34801561035657600080fd5b50610371600480360381019061036c919061242c565b6111ef565b005b34801561037f57600080fd5b5061039a60048036038101906103959190612542565b611286565b6040516103a791906123b3565b60405180910390f35b3480156103bc57600080fd5b506103d760048036038101906103d29190612599565b611651565b005b6103f360048036038101906103ee919061266d565b61167a565b005b60007f7965db0b000000000000000000000000000000000000000000000000000000007bffffffffffffffffffffffffffffffffffffffffffffffffffffffff1916827bffffffffffffffffffffffffffffffffffffffffffffffffffffffff1916148061046857506104678261192d565b5b9050919050565b6104836000801b61047e611997565b611159565b6104c2576040517f08c379a00000000000000000000000000000000000000000000000000000000081526004016104b99061270a565b60405180910390fd5b600360008273ffffffffffffffffffffffffffffffffffffffff1673ffffffffffffffffffffffffffffffffffffffff168152602001908152602001600020548173ffffffffffffffffffffffffffffffffffffffff166370a08231306040518263ffffffff1660e01b815260040161053b9190612739565b602060405180830381865afa158015610558573d6000803e3d6000fd5b505050506040513d601f19601f8201168201806040525081019061057c9190612769565b116105bc576040517f08c379a00000000000000000000000000000000000000000000000000000000081526004016105b390612808565b60405180910390fd5b6000610689600360008473ffffffffffffffffffffffffffffffffffffffff1673ffffffffffffffffffffffffffffffffffffffff168152602001908152602001600020548373ffffffffffffffffffffffffffffffffffffffff166370a08231306040518263ffffffff1660e01b815260040161063a9190612739565b602060405180830381865afa158015610657573d6000803e3d6000fd5b505050506040513d601f19601f8201168201806040525081019061067b9190612769565b61199f90919063ffffffff16565b90506106b882600460009054906101000a900473ffffffffffffffffffffffffffffffffffffffff16836119b5565b6106f7576040517f08c379a00000000000000000000000000000000000000000000000000000000081526004016106ee90612874565b60405180910390fd5b5050565b600061012c610713428661199f90919063ffffffff16565b1015610754576040517f08c379a000000000000000000000000000000000000000000000000000000000815260040161074b9061292c565b60405180910390fd5b6107f1610774612710670de0b6b3a7640000611b1b90919063ffffffff16565b6107e36107de6107ab670de0b6b3a76400008773ffffffffffffffffffffffffffffffffffffffff1661199f90919063ffffffff16565b6107d06107c1428b611b1b90919063ffffffff16565b89611b3190919063ffffffff16565b611b1b90919063ffffffff16565b611b47565b611bc190919063ffffffff16565b90509392505050565b600060016000838152602001908152602001600020600101549050919050565b610823826107fa565b6108348161082f611997565b611bd7565b61083e8383611c74565b505050565b61084b611997565b73ffffffffffffffffffffffffffffffffffffffff168173ffffffffffffffffffffffffffffffffffffffff16146108b8576040517f08c379a00000000000000000000000000000000000000000000000000000000081526004016108af906129be565b60405180910390fd5b6108c28282611d54565b5050565b61012c6108dc428561199f90919063ffffffff16565b101561091d576040517f08c379a00000000000000000000000000000000000000000000000000000000081526004016109149061292c565b60405180910390fd5b808473ffffffffffffffffffffffffffffffffffffffff1663dd62ed3e610942611997565b306040518363ffffffff1660e01b81526004016109609291906129de565b602060405180830381865afa15801561097d573d6000803e3d6000fd5b505050506040513d601f19601f820116820180604052508101906109a19190612769565b10156109e2576040517f08c379a00000000000000000000000000000000000000000000000000000000081526004016109d990612a53565b60405180910390fd5b60006109f684836109f1611997565b6106fb565b905080341015610a3b576040517f08c379a0000000000000000000000000000000000000000000000000000000008152600401610a3290612abf565b60405180910390fd5b6000848385610a48611997565b8542604051602001610a5f96959493929190612b48565b604051602081830303815290604052805190602001209050610a8a86610a83611997565b3086611e36565b5082600360008873ffffffffffffffffffffffffffffffffffffffff1673ffffffffffffffffffffffffffffffffffffffff168152602001908152602001600020819055506040518060e00160405280828152602001848152602001610aee611997565b73ffffffffffffffffffffffffffffffffffffffff1681526020018573ffffffffffffffffffffffffffffffffffffffff1681526020018773ffffffffffffffffffffffffffffffffffffffff1681526020018681526020018381525060026000838152602001908152602001600020600082015181600001556020820151816001015560408201518160020160006101000a81548173ffffffffffffffffffffffffffffffffffffffff021916908373ffffffffffffffffffffffffffffffffffffffff16021790555060608201518160030160006101000a81548173ffffffffffffffffffffffffffffffffffffffff021916908373ffffffffffffffffffffffffffffffffffffffff16021790555060808201518160040160006101000a81548173ffffffffffffffffffffffffffffffffffffffff021916908373ffffffffffffffffffffffffffffffffffffffff16021790555060a0820151816005015560c0820151816006015590505060068190806001815401808255809150506001900390600052602060002001600090919091909150557fa24e95845a1f91c9ba3be5cc98b48d12d61cd22bdc8ae2d3dfc3aedd24b506328184610cb2611997565b878a8a88604051610cc99796959493929190612bb8565b60405180910390a1505050505050565b6000806002600084815260200190815260200160002090508060050154421015610d38576040517f08c379a0000000000000000000000000000000000000000000000000000000008152600401610d2f90612c99565b60405180910390fd5b610d40611997565b73ffffffffffffffffffffffffffffffffffffffff168160020160009054906101000a900473ffffffffffffffffffffffffffffffffffffffff1673ffffffffffffffffffffffffffffffffffffffff16148015610da557506000801b816000015414155b610de4576040517f08c379a0000000000000000000000000000000000000000000000000000000008152600401610ddb90612d05565b60405180910390fd5b600073ffffffffffffffffffffffffffffffffffffffff168160040160009054906101000a900473ffffffffffffffffffffffffffffffffffffffff1673ffffffffffffffffffffffffffffffffffffffff1603610e7457610e6e8160020160009054906101000a900473ffffffffffffffffffffffffffffffffffffffff168260010154611f82565b50610fae565b610ecb8160040160009054906101000a900473ffffffffffffffffffffffffffffffffffffffff168260020160009054906101000a900473ffffffffffffffffffffffffffffffffffffffff1683600101546119b5565b50610f468160010154600360008460040160009054906101000a900473ffffffffffffffffffffffffffffffffffffffff1673ffffffffffffffffffffffffffffffffffffffff1673ffffffffffffffffffffffffffffffffffffffff1681526020019081526020016000205461199f90919063ffffffff16565b600360008360040160009054906101000a900473ffffffffffffffffffffffffffffffffffffffff1673ffffffffffffffffffffffffffffffffffffffff1673ffffffffffffffffffffffffffffffffffffffff168152602001908152602001600020819055505b60008160020160006101000a81548173ffffffffffffffffffffffffffffffffffffffff021916908373ffffffffffffffffffffffffffffffffffffffff1602179055506000801b81600001819055506000816001018190555060008160030160006101000a81548173ffffffffffffffffffffffffffffffffffffffff021916908373ffffffffffffffffffffffffffffffffffffffff160217905550600081600601819055507fa32a56a4fb497457a2ff2c7acd600aac5dd868b3c2fd537c030e2bbfaecd47e183604051611085919061257e565b60405180910390a16001915050919050565b6110ab6000801b6110a6611997565b611159565b6110ea576040517f08c379a00000000000000000000000000000000000000000000000000000000081526004016110e19061270a565b60405180910390fd5b611118600460009054906101000a900473ffffffffffffffffffffffffffffffffffffffff16600554611f82565b611157576040517f08c379a000000000000000000000000000000000000000000000000000000000815260040161114e90612d71565b60405180910390fd5b565b60006001600084815260200190815260200160002060000160008373ffffffffffffffffffffffffffffffffffffffff1673ffffffffffffffffffffffffffffffffffffffff16815260200190815260200160002060009054906101000a900460ff16905092915050565b6000801b81565b600681815481106111db57600080fd5b906000526020600020016000915090505481565b6112036000801b6111fe611997565b611159565b611242576040517f08c379a00000000000000000000000000000000000000000000000000000000081526004016112399061270a565b60405180910390fd5b80600460006101000a81548173ffffffffffffffffffffffffffffffffffffffff021916908373ffffffffffffffffffffffffffffffffffffffff16021790555050565b6000806002600084815260200190815260200160002090506112a6611997565b73ffffffffffffffffffffffffffffffffffffffff168160020160009054906101000a900473ffffffffffffffffffffffffffffffffffffffff1673ffffffffffffffffffffffffffffffffffffffff1614801561130b57506000801b816000015414155b61134a576040517f08c379a000000000000000000000000000000000000000000000000000000000815260040161134190612d05565b60405180910390fd5b600073ffffffffffffffffffffffffffffffffffffffff168160040160009054906101000a900473ffffffffffffffffffffffffffffffffffffffff1673ffffffffffffffffffffffffffffffffffffffff160361140f576113ea8160030160009054906101000a900473ffffffffffffffffffffffffffffffffffffffff166113e58360060154846001015461199f90919063ffffffff16565b611f82565b506114048160060154600554611bc190919063ffffffff16565b600581905550611568565b6114668160040160009054906101000a900473ffffffffffffffffffffffffffffffffffffffff168260030160009054906101000a900473ffffffffffffffffffffffffffffffffffffffff1683600101546119b5565b506114e18160010154600360008460040160009054906101000a900473ffffffffffffffffffffffffffffffffffffffff1673ffffffffffffffffffffffffffffffffffffffff1673ffffffffffffffffffffffffffffffffffffffff1681526020019081526020016000205461199f90919063ffffffff16565b600360008360040160009054906101000a900473ffffffffffffffffffffffffffffffffffffffff1673ffffffffffffffffffffffffffffffffffffffff1673ffffffffffffffffffffffffffffffffffffffff168152602001908152602001600020819055506115618160060154600554611bc190919063ffffffff16565b6005819055505b60008160020160006101000a81548173ffffffffffffffffffffffffffffffffffffffff021916908373ffffffffffffffffffffffffffffffffffffffff1602179055506000801b81600001819055506000816001018190555060008160030160006101000a81548173ffffffffffffffffffffffffffffffffffffffff021916908373ffffffffffffffffffffffffffffffffffffffff160217905550600081600601819055507fbc69a882ed965208c3e3d7ad3ab387a98f8f122da25ec24ac24049bd96c9b23a8360405161163f919061257e565b60405180910390a16001915050919050565b61165a826107fa565b61166b81611666611997565b611bd7565b6116758383611d54565b505050565b61012c611690428461199f90919063ffffffff16565b10156116d1576040517f08c379a00000000000000000000000000000000000000000000000000000000081526004016116c89061292c565b60405180910390fd5b60006116e583346116e0611997565b6106fb565b905060008334846116f4611997565b854260405160200161170b96959493929190612b48565b6040516020818303038152906040528051906020012090506040518060e00160405280828152602001348152602001611742611997565b73ffffffffffffffffffffffffffffffffffffffff1681526020018473ffffffffffffffffffffffffffffffffffffffff168152602001600073ffffffffffffffffffffffffffffffffffffffff1681526020018581526020018381525060026000838152602001908152602001600020600082015181600001556020820151816001015560408201518160020160006101000a81548173ffffffffffffffffffffffffffffffffffffffff021916908373ffffffffffffffffffffffffffffffffffffffff16021790555060608201518160030160006101000a81548173ffffffffffffffffffffffffffffffffffffffff021916908373ffffffffffffffffffffffffffffffffffffffff16021790555060808201518160040160006101000a81548173ffffffffffffffffffffffffffffffffffffffff021916908373ffffffffffffffffffffffffffffffffffffffff16021790555060a0820151816005015560c0820151816006015590505060068190806001815401808255809150506001900390600052602060002001600090919091909150557fa24e95845a1f91c9ba3be5cc98b48d12d61cd22bdc8ae2d3dfc3aedd24b506328134611907611997565b866000898860405161191f9796959493929190612bb8565b60405180910390a150505050565b60007f01ffc9a7000000000000000000000000000000000000000000000000000000007bffffffffffffffffffffffffffffffffffffffffffffffffffffffff1916827bffffffffffffffffffffffffffffffffffffffffffffffffffffffff1916149050919050565b600033905090565b600081836119ad9190612dc0565b905092915050565b6000808473ffffffffffffffffffffffffffffffffffffffff166040518060400160405280601981526020017f7472616e7366657228616464726573732c75696e743235362900000000000000815250805190602001208585604051602401611a1f929190612df4565b604051602081830303815290604052907bffffffffffffffffffffffffffffffffffffffffffffffffffffffff19166020820180517bffffffffffffffffffffffffffffffffffffffffffffffffffffffff8381831617835250505050604051611a899190612e97565b6000604051808303816000865af19150503d8060008114611ac6576040519150601f19603f3d011682016040523d82523d6000602084013e611acb565b606091505b5050905080611b0f576040517f08c379a0000000000000000000000000000000000000000000000000000000008152600401611b0690612efa565b60405180910390fd5b60019150509392505050565b60008183611b299190612f49565b905092915050565b60008183611b3f9190612f7a565b905092915050565b60006003821115611bae5781905060006001600284611b669190612f49565b611b709190612fd4565b90505b81811015611ba8578091506002818285611b8d9190612f49565b611b979190612fd4565b611ba19190612f49565b9050611b73565b50611bbc565b60008214611bbb57600190505b5b919050565b60008183611bcf9190612fd4565b905092915050565b611be18282611159565b611c7057611c068173ffffffffffffffffffffffffffffffffffffffff1660146120d2565b611c148360001c60206120d2565b604051602001611c25929190613109565b6040516020818303038152906040526040517f08c379a0000000000000000000000000000000000000000000000000000000008152600401611c67919061318d565b60405180910390fd5b5050565b611c7e8282611159565b611d5057600180600084815260200190815260200160002060000160008373ffffffffffffffffffffffffffffffffffffffff1673ffffffffffffffffffffffffffffffffffffffff16815260200190815260200160002060006101000a81548160ff021916908315150217905550611cf5611997565b73ffffffffffffffffffffffffffffffffffffffff168173ffffffffffffffffffffffffffffffffffffffff16837f2f8788117e7eff1d82e926ec794901d17c78024a50270940304540a733656f0d60405160405180910390a45b5050565b611d5e8282611159565b15611e325760006001600084815260200190815260200160002060000160008373ffffffffffffffffffffffffffffffffffffffff1673ffffffffffffffffffffffffffffffffffffffff16815260200190815260200160002060006101000a81548160ff021916908315150217905550611dd7611997565b73ffffffffffffffffffffffffffffffffffffffff168173ffffffffffffffffffffffffffffffffffffffff16837ff6391f5c32d9c69d2a47ea670b442974b53935d1edc7fd64eb21e047a839171b60405160405180910390a45b5050565b6000808573ffffffffffffffffffffffffffffffffffffffff166040518060600160405280602581526020016133b26025913980519060200120868686604051602401611e85939291906131af565b604051602081830303815290604052907bffffffffffffffffffffffffffffffffffffffffffffffffffffffff19166020820180517bffffffffffffffffffffffffffffffffffffffffffffffffffffffff8381831617835250505050604051611eef9190612e97565b6000604051808303816000865af19150503d8060008114611f2c576040519150601f19603f3d011682016040523d82523d6000602084013e611f31565b606091505b5050905080611f75576040517f08c379a0000000000000000000000000000000000000000000000000000000008152600401611f6c90612efa565b60405180910390fd5b6001915050949350505050565b60008047905082811015611fcb576040517f08c379a0000000000000000000000000000000000000000000000000000000008152600401611fc290613232565b60405180910390fd5b60008473ffffffffffffffffffffffffffffffffffffffff1684600067ffffffffffffffff81111561200057611fff613252565b5b6040519080825280601f01601f1916602001820160405280156120325781602001600182028036833780820191505090505b506040516120409190612e97565b60006040518083038185875af1925050503d806000811461207d576040519150601f19603f3d011682016040523d82523d6000602084013e612082565b606091505b50509050806120c6576040517f08c379a00000000000000000000000000000000000000000000000000000000081526004016120bd906132cd565b60405180910390fd5b60019250505092915050565b6060600060028360026120e59190612f7a565b6120ef9190612fd4565b67ffffffffffffffff81111561210857612107613252565b5b6040519080825280601f01601f19166020018201604052801561213a5781602001600182028036833780820191505090505b5090507f300000000000000000000000000000000000000000000000000000000000000081600081518110612172576121716132ed565b5b60200101907effffffffffffffffffffffffffffffffffffffffffffffffffffffffffffff1916908160001a9053507f7800000000000000000000000000000000000000000000000000000000000000816001815181106121d6576121d56132ed565b5b60200101907effffffffffffffffffffffffffffffffffffffffffffffffffffffffffffff1916908160001a905350600060018460026122169190612f7a565b6122209190612fd4565b90505b60018111156122c0577f3031323334353637383961626364656600000000000000000000000000000000600f861660108110612262576122616132ed565b5b1a60f81b828281518110612279576122786132ed565b5b60200101907effffffffffffffffffffffffffffffffffffffffffffffffffffffffffffff1916908160001a905350600485901c9450806122b99061331c565b9050612223565b5060008414612304576040517f08c379a00000000000000000000000000000000000000000000000000000000081526004016122fb90613391565b60405180910390fd5b8091505092915050565b600080fd5b60007fffffffff0000000000000000000000000000000000000000000000000000000082169050919050565b61234881612313565b811461235357600080fd5b50565b6000813590506123658161233f565b92915050565b6000602082840312156123815761238061230e565b5b600061238f84828501612356565b91505092915050565b60008115159050919050565b6123ad81612398565b82525050565b60006020820190506123c860008301846123a4565b92915050565b600073ffffffffffffffffffffffffffffffffffffffff82169050919050565b60006123f9826123ce565b9050919050565b612409816123ee565b811461241457600080fd5b50565b60008135905061242681612400565b92915050565b6000602082840312156124425761244161230e565b5b600061245084828501612417565b91505092915050565b6000819050919050565b61246c81612459565b811461247757600080fd5b50565b60008135905061248981612463565b92915050565b6000806000606084860312156124a8576124a761230e565b5b60006124b68682870161247a565b93505060206124c78682870161247a565b92505060406124d886828701612417565b9150509250925092565b6124eb81612459565b82525050565b600060208201905061250660008301846124e2565b92915050565b6000819050919050565b61251f8161250c565b811461252a57600080fd5b50565b60008135905061253c81612516565b92915050565b6000602082840312156125585761255761230e565b5b60006125668482850161252d565b91505092915050565b6125788161250c565b82525050565b6000602082019050612593600083018461256f565b92915050565b600080604083850312156125b0576125af61230e565b5b60006125be8582860161252d565b92505060206125cf85828601612417565b9150509250929050565b600080600080608085870312156125f3576125f261230e565b5b600061260187828801612417565b94505060206126128782880161247a565b935050604061262387828801612417565b92505060606126348782880161247a565b91505092959194509250565b6000602082840312156126565761265561230e565b5b60006126648482850161247a565b91505092915050565b600080604083850312156126845761268361230e565b5b60006126928582860161247a565b92505060206126a385828601612417565b9150509250929050565b600082825260208201905092915050565b7f6f6e6c792061646d696e00000000000000000000000000000000000000000000600082015250565b60006126f4600a836126ad565b91506126ff826126be565b602082019050919050565b60006020820190508181036000830152612723816126e7565b9050919050565b612733816123ee565b82525050565b600060208201905061274e600083018461272a565b92915050565b60008151905061276381612463565b92915050565b60006020828403121561277f5761277e61230e565b5b600061278d84828501612754565b91505092915050565b7f62616c616e6365206d7573742062652067726561746572207468616e206c6f6360008201527f6b656420746f6b656e2062616c616e6365730000000000000000000000000000602082015250565b60006127f26032836126ad565b91506127fd82612796565b604082019050919050565b60006020820190508181036000830152612821816127e5565b9050919050565b7f636f756c64206e6f74207472616e7366657220746f6b656e7300000000000000600082015250565b600061285e6019836126ad565b915061286982612828565b602082019050919050565b6000602082019050818103600083015261288d81612851565b9050919050565b7f646966666572656e6365206265747765656e206c6f636b2074696d6520616e6460008201527f2063757272656e7420626c6f636b2074696d652073686f756c6420626520617460208201527f206c656173742035206d696e7574657300000000000000000000000000000000604082015250565b60006129166050836126ad565b915061292182612894565b606082019050919050565b6000602082019050818103600083015261294581612909565b9050919050565b7f416363657373436f6e74726f6c3a2063616e206f6e6c792072656e6f756e636560008201527f20726f6c657320666f722073656c660000000000000000000000000000000000602082015250565b60006129a8602f836126ad565b91506129b38261294c565b604082019050919050565b600060208201905081810360008301526129d78161299b565b9050919050565b60006040820190506129f3600083018561272a565b612a00602083018461272a565b9392505050565b7f616c6c6f77616e636520746f6f206c6f77000000000000000000000000000000600082015250565b6000612a3d6011836126ad565b9150612a4882612a07565b602082019050919050565b60006020820190508181036000830152612a6c81612a30565b9050919050565b7f6d75737420706179206578616374206665650000000000000000000000000000600082015250565b6000612aa96012836126ad565b9150612ab482612a73565b602082019050919050565b60006020820190508181036000830152612ad881612a9c565b9050919050565b6000819050919050565b612afa612af582612459565b612adf565b82525050565b60008160601b9050919050565b6000612b1882612b00565b9050919050565b6000612b2a82612b0d565b9050919050565b612b42612b3d826123ee565b612b1f565b82525050565b6000612b548289612ae9565b602082019150612b648288612ae9565b602082019150612b748287612b31565b601482019150612b848286612b31565b601482019150612b948285612ae9565b602082019150612ba48284612ae9565b602082019150819050979650505050505050565b600060e082019050612bcd600083018a61256f565b612bda60208301896124e2565b612be7604083018861272a565b612bf4606083018761272a565b612c01608083018661272a565b612c0e60a08301856124e2565b612c1b60c08301846124e2565b98975050505050505050565b7f63616e6e6f742063616e63656c206265666f7265206c6f636b2065787069726160008201527f74696f6e00000000000000000000000000000000000000000000000000000000602082015250565b6000612c836024836126ad565b9150612c8e82612c27565b604082019050919050565b60006020820190508181036000830152612cb281612c76565b9050919050565b7f696e76616c696420726571756573740000000000000000000000000000000000600082015250565b6000612cef600f836126ad565b9150612cfa82612cb9565b602082019050919050565b60006020820190508181036000830152612d1e81612ce2565b9050919050565b7f636f756c64206e6f742074616b65206665657300000000000000000000000000600082015250565b6000612d5b6013836126ad565b9150612d6682612d25565b602082019050919050565b60006020820190508181036000830152612d8a81612d4e565b9050919050565b7f4e487b7100000000000000000000000000000000000000000000000000000000600052601160045260246000fd5b6000612dcb82612459565b9150612dd683612459565b925082821015612de957612de8612d91565b5b828203905092915050565b6000604082019050612e09600083018561272a565b612e1660208301846124e2565b9392505050565b600081519050919050565b600081905092915050565b60005b83811015612e51578082015181840152602081019050612e36565b83811115612e60576000848401525b50505050565b6000612e7182612e1d565b612e7b8185612e28565b9350612e8b818560208601612e33565b80840191505092915050565b6000612ea38284612e66565b915081905092915050565b7f636f756c64206e6f74207472616e7366657220746f6b656e0000000000000000600082015250565b6000612ee46018836126ad565b9150612eef82612eae565b602082019050919050565b60006020820190508181036000830152612f1381612ed7565b9050919050565b7f4e487b7100000000000000000000000000000000000000000000000000000000600052601260045260246000fd5b6000612f5482612459565b9150612f5f83612459565b925082612f6f57612f6e612f1a565b5b828204905092915050565b6000612f8582612459565b9150612f9083612459565b9250817fffffffffffffffffffffffffffffffffffffffffffffffffffffffffffffffff0483118215151615612fc957612fc8612d91565b5b828202905092915050565b6000612fdf82612459565b9150612fea83612459565b9250827fffffffffffffffffffffffffffffffffffffffffffffffffffffffffffffffff0382111561301f5761301e612d91565b5b828201905092915050565b600081905092915050565b7f416363657373436f6e74726f6c3a206163636f756e7420000000000000000000600082015250565b600061306b60178361302a565b915061307682613035565b601782019050919050565b600081519050919050565b600061309782613081565b6130a1818561302a565b93506130b1818560208601612e33565b80840191505092915050565b7f206973206d697373696e6720726f6c6520000000000000000000000000000000600082015250565b60006130f360118361302a565b91506130fe826130bd565b601182019050919050565b60006131148261305e565b9150613120828561308c565b915061312b826130e6565b9150613137828461308c565b91508190509392505050565b6000601f19601f8301169050919050565b600061315f82613081565b61316981856126ad565b9350613179818560208601612e33565b61318281613143565b840191505092915050565b600060208201905081810360008301526131a78184613154565b905092915050565b60006060820190506131c4600083018661272a565b6131d1602083018561272a565b6131de60408301846124e2565b949350505050565b7f62616c616e636520746f6f206c6f770000000000000000000000000000000000600082015250565b600061321c600f836126ad565b9150613227826131e6565b602082019050919050565b6000602082019050818103600083015261324b8161320f565b9050919050565b7f4e487b7100000000000000000000000000000000000000000000000000000000600052604160045260246000fd5b7f636f756c64206e6f74207472616e736665722065746865720000000000000000600082015250565b60006132b76018836126ad565b91506132c282613281565b602082019050919050565b600060208201905081810360008301526132e6816132aa565b9050919050565b7f4e487b7100000000000000000000000000000000000000000000000000000000600052603260045260246000fd5b600061332782612459565b91506000820361333a57613339612d91565b5b600182039050919050565b7f537472696e67733a20686578206c656e67746820696e73756666696369656e74600082015250565b600061337b6020836126ad565b915061338682613345565b602082019050919050565b600060208201905081810360008301526133aa8161336e565b905091905056fe7472616e7366657246726f6d28616464726573732c616464726573732c75696e7432353629a2646970667358221220632857521439abd7f06967035cb8fe20de9de6fc1e098dd11ff3ac36e6d3a29b64736f6c634300080d0033",
  "linkReferences": {},
  "deployedLinkReferences": {}
}